{
  "address": "0x6f6E7c8C3fb026E44B3074fa8165bc7c820Dba6b",
  "abi": [
    {
      "anonymous": false,
      "inputs": [
        {
          "indexed": true,
          "internalType": "uint256",
          "name": "vaultId",
          "type": "uint256"
        },
        {
          "indexed": false,
          "internalType": "address",
          "name": "signatory",
          "type": "address"
        },
        {
          "indexed": false,
          "internalType": "bytes32",
          "name": "btcPubkey",
          "type": "bytes32"
        }
      ],
      "name": "Accepted",
      "type": "event"
    },
    {
      "anonymous": false,
      "inputs": [
        {
          "indexed": true,
          "internalType": "uint256",
          "name": "vaultId",
          "type": "uint256"
        },
        {
          "indexed": false,
          "internalType": "address",
          "name": "signatory",
          "type": "address"
        },
        {
          "indexed": false,
          "internalType": "uint16",
          "name": "share",
          "type": "uint16"
        }
      ],
      "name": "Added",
      "type": "event"
    },
    {
      "anonymous": false,
      "inputs": [
        {
          "indexed": true,
          "internalType": "uint256",
          "name": "vaultId",
          "type": "uint256"
        },
        {
          "indexed": false,
          "internalType": "address",
          "name": "signatory",
          "type": "address"
        },
        {
          "indexed": false,
          "internalType": "uint16",
          "name": "oldShare",
          "type": "uint16"
        },
        {
          "indexed": false,
          "internalType": "uint16",
          "name": "newShare",
          "type": "uint16"
        }
      ],
      "name": "Edited",
      "type": "event"
    },
    {
      "anonymous": false,
      "inputs": [
        {
          "indexed": true,
          "internalType": "uint256",
          "name": "vaultId",
          "type": "uint256"
        }
      ],
      "name": "Finalized",
      "type": "event"
    },
    {
      "anonymous": false,
      "inputs": [
        {
          "indexed": true,
          "internalType": "uint256",
          "name": "vaultId",
          "type": "uint256"
        },
        {
          "components": [
            {
              "internalType": "string",
              "name": "name",
              "type": "string"
            },
            {
              "internalType": "address",
              "name": "initiator",
              "type": "address"
            },
            {
              "internalType": "uint16",
              "name": "threshold",
              "type": "uint16"
            },
            {
              "internalType": "bytes1",
              "name": "status",
              "type": "bytes1"
            },
            {
              "internalType": "uint16",
              "name": "totalShare",
              "type": "uint16"
            }
          ],
          "indexed": false,
          "internalType": "struct BtcVault.Vault",
          "name": "vault",
          "type": "tuple"
        }
      ],
      "name": "Initialized",
      "type": "event"
    },
    {
      "anonymous": false,
      "inputs": [
        {
          "indexed": true,
          "internalType": "uint256",
          "name": "vaultId",
          "type": "uint256"
        },
        {
          "indexed": false,
          "internalType": "uint256",
          "name": "proposalId",
          "type": "uint256"
        },
        {
          "indexed": false,
          "internalType": "address",
          "name": "signatory",
          "type": "address"
        }
      ],
      "name": "WithdrawalApproved",
      "type": "event"
    },
    {
      "anonymous": false,
      "inputs": [
        {
          "indexed": true,
          "internalType": "uint256",
          "name": "vaultId",
          "type": "uint256"
        },
        {
          "indexed": false,
          "internalType": "uint256",
          "name": "proposalId",
          "type": "uint256"
        },
        {
          "indexed": false,
          "internalType": "address",
          "name": "authorizedOrSignatory",
          "type": "address"
        }
      ],
      "name": "WithdrawalInitiated",
      "type": "event"
    },
    {
      "inputs": [
        {
          "internalType": "uint256",
          "name": "vaultId",
          "type": "uint256"
        },
        {
          "internalType": "address[]",
          "name": "authorizedAddrList",
          "type": "address[]"
        }
      ],
      "name": "addAuthorizedAddresses",
      "outputs": [],
      "stateMutability": "nonpayable",
      "type": "function"
    },
    {
      "inputs": [
        {
          "internalType": "uint256",
          "name": "vaultId",
          "type": "uint256"
        },
        {
          "internalType": "bytes32",
          "name": "btcPubkey",
          "type": "bytes32"
        }
      ],
      "name": "approveSignatory",
      "outputs": [],
      "stateMutability": "nonpayable",
      "type": "function"
    },
    {
      "inputs": [
        {
          "internalType": "uint256",
          "name": "vaultId",
          "type": "uint256"
        },
        {
          "internalType": "uint256",
          "name": "proposalId",
          "type": "uint256"
        },
        {
          "internalType": "bytes[]",
          "name": "sigs",
          "type": "bytes[]"
        }
      ],
      "name": "approveWithdrawal",
      "outputs": [],
      "stateMutability": "nonpayable",
      "type": "function"
    },
    {
      "inputs": [
        {
          "internalType": "uint256",
          "name": "vaultId",
          "type": "uint256"
        },
        {
          "internalType": "address[]",
          "name": "signatories",
          "type": "address[]"
        },
        {
          "internalType": "uint16[]",
          "name": "shares",
          "type": "uint16[]"
        }
      ],
      "name": "editSignatories",
      "outputs": [],
      "stateMutability": "nonpayable",
      "type": "function"
    },
    {
      "inputs": [
        {
          "internalType": "uint256",
          "name": "vaultId",
          "type": "uint256"
        }
      ],
      "name": "finalizeVault",
      "outputs": [],
      "stateMutability": "nonpayable",
      "type": "function"
    },
    {
      "inputs": [
        {
          "internalType": "uint256",
          "name": "vaultId",
          "type": "uint256"
        }
      ],
      "name": "getAuthorizedAddresses",
      "outputs": [
        {
          "internalType": "address[]",
          "name": "",
          "type": "address[]"
        }
      ],
      "stateMutability": "view",
      "type": "function"
    },
    {
      "inputs": [
        {
          "internalType": "uint256",
          "name": "vaultId",
          "type": "uint256"
        }
      ],
      "name": "getSignatories",
      "outputs": [
        {
          "internalType": "address[]",
          "name": "",
          "type": "address[]"
        },
        {
          "internalType": "uint16[]",
          "name": "",
          "type": "uint16[]"
        },
        {
          "internalType": "bytes32[]",
          "name": "",
          "type": "bytes32[]"
        }
      ],
      "stateMutability": "view",
      "type": "function"
    },
    {
      "inputs": [
        {
          "internalType": "address",
          "name": "signatory",
          "type": "address"
        }
      ],
      "name": "getSignatoryVaults",
      "outputs": [
        {
          "internalType": "uint256[]",
          "name": "",
          "type": "uint256[]"
        },
        {
          "internalType": "bytes1[]",
          "name": "",
          "type": "bytes1[]"
        }
      ],
      "stateMutability": "view",
      "type": "function"
    },
    {
      "inputs": [],
      "name": "getVaultLength",
      "outputs": [
        {
          "internalType": "uint256",
          "name": "",
          "type": "uint256"
        }
      ],
      "stateMutability": "view",
      "type": "function"
    },
    {
      "inputs": [
        {
          "internalType": "uint256",
          "name": "vaultId",
          "type": "uint256"
        },
        {
          "internalType": "uint256",
          "name": "proposalId",
          "type": "uint256"
        }
      ],
      "name": "getWithdrawRequest",
      "outputs": [
        {
          "components": [
            {
              "internalType": "bytes",
              "name": "scriptPubkey",
              "type": "bytes"
            },
            {
              "internalType": "uint64",
              "name": "amount",
              "type": "uint64"
            },
            {
              "internalType": "uint32",
              "name": "fee",
              "type": "uint32"
            }
          ],
          "internalType": "struct BtcVault.WithdrawRequest",
          "name": "",
          "type": "tuple"
        }
      ],
      "stateMutability": "view",
      "type": "function"
    },
    {
      "inputs": [
        {
          "internalType": "uint256",
          "name": "vaultId",
          "type": "uint256"
        },
        {
          "internalType": "uint256",
          "name": "proposalId",
          "type": "uint256"
        },
        {
          "internalType": "address",
          "name": "signatory",
          "type": "address"
        }
      ],
      "name": "getWithdrawRequestSigs",
      "outputs": [
        {
          "internalType": "bytes[]",
          "name": "",
          "type": "bytes[]"
        }
      ],
      "stateMutability": "view",
      "type": "function"
    },
    {
      "inputs": [
        {
          "internalType": "string",
          "name": "name",
          "type": "string"
        },
        {
          "internalType": "uint16",
          "name": "threshold",
          "type": "uint16"
        },
        {
          "internalType": "address[]",
          "name": "signatories",
          "type": "address[]"
        },
        {
          "internalType": "uint16[]",
          "name": "shares",
          "type": "uint16[]"
        },
        {
          "internalType": "address[]",
          "name": "authorizedAddrList",
          "type": "address[]"
        },
        {
          "components": [
            {
              "internalType": "uint32",
              "name": "timelock",
              "type": "uint32"
            },
            {
              "internalType": "uint16",
              "name": "threshold",
              "type": "uint16"
            }
          ],
          "internalType": "struct BtcVault.TimelockThreshold[]",
          "name": "tsList",
          "type": "tuple[]"
        }
      ],
      "name": "initializeVault",
      "outputs": [],
      "stateMutability": "nonpayable",
      "type": "function"
    },
    {
      "inputs": [
        {
          "internalType": "uint256",
          "name": "vaultId",
          "type": "uint256"
        },
        {
          "components": [
            {
              "internalType": "bytes",
              "name": "scriptPubkey",
              "type": "bytes"
            },
            {
              "internalType": "uint64",
              "name": "amount",
              "type": "uint64"
            },
            {
              "internalType": "uint32",
              "name": "fee",
              "type": "uint32"
            }
          ],
          "internalType": "struct BtcVault.WithdrawRequest",
          "name": "request",
          "type": "tuple"
        }
      ],
      "name": "initiateWithdrawal",
      "outputs": [],
      "stateMutability": "nonpayable",
      "type": "function"
    },
    {
      "inputs": [
        {
          "internalType": "uint256",
          "name": "",
          "type": "uint256"
        }
      ],
      "name": "nextProposalId",
      "outputs": [
        {
          "internalType": "uint256",
          "name": "",
          "type": "uint256"
        }
      ],
      "stateMutability": "view",
      "type": "function"
    },
    {
      "inputs": [
        {
          "internalType": "uint256",
          "name": "",
          "type": "uint256"
        }
      ],
      "name": "timelockThresholds",
      "outputs": [
        {
          "internalType": "uint32",
          "name": "timelock",
          "type": "uint32"
        },
        {
          "internalType": "uint16",
          "name": "threshold",
          "type": "uint16"
        }
      ],
      "stateMutability": "view",
      "type": "function"
    },
    {
      "inputs": [
        {
          "internalType": "uint256",
          "name": "",
          "type": "uint256"
        }
      ],
      "name": "vaults",
      "outputs": [
        {
          "internalType": "string",
          "name": "name",
          "type": "string"
        },
        {
          "internalType": "address",
          "name": "initiator",
          "type": "address"
        },
        {
          "internalType": "uint16",
          "name": "threshold",
          "type": "uint16"
        },
        {
          "internalType": "bytes1",
          "name": "status",
          "type": "bytes1"
        },
        {
          "internalType": "uint16",
          "name": "totalShare",
          "type": "uint16"
        }
      ],
      "stateMutability": "view",
      "type": "function"
    }
  ],
  "transactionHash": "0x7edc6d944e2cad7a3fc376f1c1e81395e10ff91f4428b7c81b47ea620a47c67b",
  "args": [],
  "numDeployments": 5,
  "solcInputHash": "7cf12cacf2b04cab140617faceae30df",
  "bytecode": "0x608060405234801561001057600080fd5b50612833806100206000396000f3fe608060405234801561001057600080fd5b50600436106101005760003560e01c8063812617c711610097578063ad676c8911610066578063ad676c891461024b578063ad96301a1461026c578063b9242bc31461027f578063e78b9202146102b157600080fd5b8063812617c7146101ec5780638c64ea4a146101f45780638ff3ba0b146102185780639640b4921461022b57600080fd5b80630bb38379116100d35780630bb383791461016957806320c89cd71461017c57806365f4c0981461019c57806379ae6563146101be57600080fd5b80630230453914610105578063065e8c061461011a578063079bc6811461012d57806308074fa814610140575b600080fd5b610118610113366004611e52565b6102c4565b005b610118610128366004611f09565b61046b565b61011861013b366004612042565b61068a565b61015361014e3660046120ae565b610944565b6040516101609190612130565b60405180910390f35b610118610177366004612192565b610a44565b61018f61018a366004612192565b610b9c565b60405161016091906121b4565b6101af6101aa366004611f09565b610c9a565b60405161016093929190612243565b6101de6101cc366004611f09565b60026020526000908152604090205481565b604051908152602001610160565b6000546101de565b610207610202366004611f09565b610e9a565b6040516101609594939291906122d6565b610118610226366004612326565b610f82565b61023e610239366004611f09565b611034565b604051610160919061236c565b61025e61025936600461237f565b61104e565b60405161016092919061239a565b61011861027a36600461241f565b611176565b61029261028d366004611f09565b61139a565b6040805163ffffffff909316835261ffff909116602083015201610160565b6101186102bf366004612571565b6113ce565b600082815260056020526040902082906102de90336119a7565b806102fc575060008181526004602052604090206102fc90336119cc565b61034d5760405162461bcd60e51b815260206004820152601a60248201527f496e76616c696420617574686f72697a6564206164647265737300000000000060448201526064015b60405180910390fd5b8151516023146103965760405162461bcd60e51b8152602060048201526014602482015273496e76616c6964207363726970745075626b657960601b6044820152606401610344565b60008381526002602090815260408083205460078352818420818552835292208451805186936103ca928492910190611cc3565b506020828101516001909201805460409485015163ffffffff16600160401b026001600160601b03199091166001600160401b0390941693909317929092179091556000868152600290915290812080549161042583612667565b90915550506040805182815233602082015285917fdb580f00bcfe87161608bd2f8363ccf9b06b0995a9496bb48e987b36da281a2991015b60405180910390a250505050565b806000818154811061047f5761047f612682565b60009182526020909120600290910201600101546001600160a01b031633146104ba5760405162461bcd60e51b815260040161034490612698565b600080548391908190839081106104d3576104d3612682565b6000918252602090912060029091020160010154600160b01b900460f81b6001600160f81b031916146105185760405162461bcd60e51b8152600401610344906126c3565b600083815260036020526040902061052f906119e1565b6000848152600460205260409020610546906119ec565b146105935760405162461bcd60e51b815260206004820152601b60248201527f4d69736d617463682073686172657320616e64207075626b65797300000000006044820152606401610344565b612710600084815481106105a9576105a9612682565b6000918252602090912060029091020160010154600160b81b900461ffff16146106155760405162461bcd60e51b815260206004820152601e60248201527f546f74616c2073686172652076616c7565206f7574206f662072616e676500006044820152606401610344565b600160f81b6000848154811061062d5761062d612682565b600091825260208220600160029092020101805460f89390931c600160b01b0260ff60b01b199093169290921790915560405184917f839cf22e1ba87ce2f5b9bbf46cf0175a09eed52febdfaac8852478e68203c76391a2505050565b826000818154811061069e5761069e612682565b60009182526020909120600290910201600101546001600160a01b031633146106d95760405162461bcd60e51b815260040161034490612698565b600080548591908190839081106106f2576106f2612682565b6000918252602090912060029091020160010154600160b01b900460f81b6001600160f81b031916146107375760405162461bcd60e51b8152600401610344906126c3565b600080868154811061074b5761074b612682565b6000918252602082206001600290920201015461ffff600160b81b9091041691505b85518110156108fc576107b486828151811061078b5761078b612682565b6020026020010151600460008a81526020019081526020016000206119cc90919063ffffffff16565b6107f95760405162461bcd60e51b81526020600482015260166024820152754e6f6e2d6578697374656e74207369676e61746f727960501b6044820152606401610344565b600061083987838151811061081057610810612682565b6020026020010151600460008b81526020019081526020016000206119f790919063ffffffff16565b9050600086838151811061084f5761084f612682565b6020026020010151905080828561086691906126fa565b610870919061271d565b9350887fedf216018d1ddd28d5d0c5ef6cd029b93a828b15989f7cb7bac5f1335fc465828985815181106108a6576108a6612682565b602002602001015184846040516108df939291906001600160a01b0393909316835261ffff918216602084015216604082015260600190565b60405180910390a2505080806108f490612667565b91505061076d565b50806000878154811061091157610911612682565b906000526020600020906002020160010160176101000a81548161ffff021916908361ffff160217905550505050505050565b600083815260086020908152604080832085845282528083206001600160a01b03851684528252808320805482518185028101850190935280835260609492939192909184015b82821015610a375783829060005260206000200180546109aa90612743565b80601f01602080910402602001604051908101604052809291908181526020018280546109d690612743565b8015610a235780601f106109f857610100808354040283529160200191610a23565b820191906000526020600020905b815481529060010190602001808311610a0657829003601f168201915b50505050508152602001906001019061098b565b5050505090509392505050565b60008281526004602052604090208290610a5e90336119cc565b610a9e5760405162461bcd60e51b8152602060048201526011602482015270496e76616c6964207369676e61746f727960781b6044820152606401610344565b60008054849190819083908110610ab757610ab7612682565b6000918252602090912060029091020160010154600160b01b900460f81b6001600160f81b03191614610afc5760405162461bcd60e51b8152600401610344906126c3565b82610b3d5760405162461bcd60e51b8152602060048201526011602482015270496e76616c6964206274635075626b657960781b6044820152606401610344565b6000848152600360205260409020610b63906001600160601b03193360601b1685611a0c565b50604080513381526020810185905285917f67fd58733483015fe5529bd439261f9b074e0783528b212f7dc81ae49d4c448d910161045d565b604080516060808201835280825260006020808401829052838501829052868252600781528482208683529052839020835191820190935282549192909182908290610be790612743565b80601f0160208091040260200160405190810160405280929190818152602001828054610c1390612743565b8015610c605780601f10610c3557610100808354040283529160200191610c60565b820191906000526020600020905b815481529060010190602001808311610c4357829003601f168201915b5050509183525050600191909101546001600160401b0381166020830152600160401b900463ffffffff1660409091015290505b92915050565b60608060606000610cbc600460008781526020019081526020016000206119ec565b90506000816001600160401b03811115610cd857610cd8611d5c565b604051908082528060200260200182016040528015610d01578160200160208202803683370190505b5090506000826001600160401b03811115610d1e57610d1e611d5c565b604051908082528060200260200182016040528015610d47578160200160208202803683370190505b5090506000836001600160401b03811115610d6457610d64611d5c565b604051908082528060200260200182016040528015610d8d578160200160208202803683370190505b50905060005b84811015610e8b5760008981526004602052604081208190610db59084611a31565b9150915081868481518110610dcc57610dcc612682565b60200260200101906001600160a01b031690816001600160a01b03168152505080858481518110610dff57610dff612682565b61ffff90921660209283029190910182015260008c81526003909152604090206001600160601b0319606084901b1690610e399082611a4d565b15610e755760008c8152600360205260409020610e569082611a59565b858581518110610e6857610e68612682565b6020026020010181815250505b5050508080610e8390612667565b915050610d93565b50919790965090945092505050565b60008181548110610eaa57600080fd5b9060005260206000209060020201600091509050806000018054610ecd90612743565b80601f0160208091040260200160405190810160405280929190818152602001828054610ef990612743565b8015610f465780601f10610f1b57610100808354040283529160200191610f46565b820191906000526020600020905b815481529060010190602001808311610f2957829003601f168201915b505050600190930154919250506001600160a01b0381169061ffff600160a01b8204811691600160b01b810460f81b91600160b81b9091041685565b8160008181548110610f9657610f96612682565b60009182526020909120600290910201600101546001600160a01b03163314610fd15760405162461bcd60e51b815260040161034490612698565b60005b825181101561102e5761101b838281518110610ff257610ff2612682565b602002602001015160056000878152602001908152602001600020611ac990919063ffffffff16565b508061102681612667565b915050610fd4565b50505050565b6000818152600560205260409020606090610c9490611ade565b6001600160a01b0381166000908152600660205260408120606091829161107490611ade565b9050600081516001600160401b0381111561109157611091611d5c565b6040519080825280602002602001820160405280156110ba578160200160208202803683370190505b5090506001600160601b0319606086901b1660005b835181101561116a5760008482815181106110ec576110ec612682565b6020026020010151905061111b8360036000848152602001908152602001600020611a4d90919063ffffffff16565b61112657600061112c565b600160f81b5b84838151811061113e5761113e612682565b6001600160f81b031990921660209283029190910190910152508061116281612667565b9150506110cf565b50919590945092505050565b6000838152600460205260409020839061119090336119cc565b6111d05760405162461bcd60e51b8152602060048201526011602482015270496e76616c6964207369676e61746f727960781b6044820152606401610344565b60008481526002602052604090205483106112225760405162461bcd60e51b8152602060048201526012602482015271125b9d985b1a59081c1c9bdc1bdcd85b125960721b6044820152606401610344565b60008481526008602090815260408083208684528252808320338452909152902054156112845760405162461bcd60e51b815260206004820152601060248201526f105b1c9958591e48185c1c1c9bdd995960821b6044820152606401610344565b60005b8251811015611362578281815181106112a2576112a2612682565b6020026020010151516041146112e85760405162461bcd60e51b815260206004820152600b60248201526a496e76616c69642073696760a81b6044820152606401610344565b600085815260086020908152604080832087845282528083203384529091529020835184908390811061131d5761131d612682565b6020908102919091018101518254600181018455600093845292829020815161134f9491909101929190910190611cc3565b508061135a81612667565b915050611287565b506040805184815233602082015285917fa9077d55089e43d2c6e80b205d0233159d2bb61b1beeab36a0d8c00184a3c6d8910161045d565b600181815481106113aa57600080fd5b60009182526020909120015463ffffffff81169150640100000000900461ffff1682565b825184511461141f5760405162461bcd60e51b815260206004820152601f60248201527f4d69736d61746368207369676e61746f7269657320616e6420736861726573006044820152606401610344565b6127108561ffff16111561146e5760405162461bcd60e51b81526020600482015260166024820152755468726573686f6c64206f7574206f662072616e676560501b6044820152606401610344565b6003815111156114c05760405162461bcd60e51b815260206004820152601f60248201527f4f6e6c7920737570706f72747320757020746f20332074696d656c6f636b73006044820152606401610344565b600080546040805160a0810182526060808252602082018590529181018490529081018390526080810183905290915b865181101561157a576115368388838151811061150f5761150f612682565b602002602001015188848151811061152957611529612682565b6020026020010151611aeb565b85818151811061154857611548612682565b6020026020010151826080015161155f919061271d565b61ffff1660808301528061157281612667565b9150506114f0565b506001835110611653578661ffff168360008151811061159c5761159c612682565b60200260200101516020015161ffff16106115ed5760405162461bcd60e51b8152602060048201526011602482015270125b9d985b1a59081d1a1c995cda1bdb19607a1b6044820152606401610344565b428360008151811061160157611601612682565b60200260200101516000015163ffffffff16116116535760405162461bcd60e51b815260206004820152601060248201526f496e76616c69642074696d656c6f636b60801b6044820152606401610344565b6001835111156117a25760015b83518110156117a05783818151811061167b5761167b612682565b60200260200101516020015161ffff1684600183611699919061277e565b815181106116a9576116a9612682565b60200260200101516020015161ffff16116116fa5760405162461bcd60e51b8152602060048201526011602482015270125b9d985b1a59081d1a1c995cda1bdb19607a1b6044820152606401610344565b83818151811061170c5761170c612682565b60200260200101516000015163ffffffff168460018361172c919061277e565b8151811061173c5761173c612682565b60200260200101516000015163ffffffff161061178e5760405162461bcd60e51b815260206004820152601060248201526f496e76616c69642074696d656c6f636b60801b6044820152606401610344565b8061179881612667565b915050611660565b505b60005b83518110156118245760018482815181106117c2576117c2612682565b6020908102919091018101518254600181018455600093845292829020815193018054919092015161ffff166401000000000265ffffffffffff1990911663ffffffff909316929092179190911790558061181c81612667565b9150506117a5565b5060005b84518110156118825761186f85828151811061184657611846612682565b602002602001015160056000868152602001908152602001600020611ac990919063ffffffff16565b508061187a81612667565b915050611828565b508781523360208083019190915261ffff88166040830152600060608301819052805460018101825590805282518051849360029093027f290decd9548b62a8d60345a988386fc84ba6bc95484008f6362f93160ef3e56301926118ea928492910190611cc3565b506020820151600191909101805460408085015160608601516080909601516001600160a01b039095166001600160b01b031990931692909217600160a01b61ffff938416021762ffffff60b01b1916600160b01b60f89690961c9590950261ffff60b81b191694909417600160b81b91909316029190911790555182907fceb24b639ec6e270e75f148680f03a9c71e421cadafe6df6ca77d57dbe37979b90611995908490612795565b60405180910390a25050505050505050565b6001600160a01b038116600090815260018301602052604081205415155b9392505050565b60006119c5836001600160a01b038416611a4d565b6000610c9482611b78565b6000610c94826119e1565b60006119c5836001600160a01b038416611a59565b60008281526002840160205260408120829055611a298484611b82565b949350505050565b6000808080611a408686611b8e565b9097909650945050505050565b60006119c58383611bb9565b600081815260028301602052604081205480151580611a7d5750611a7d8484611a4d565b6119c55760405162461bcd60e51b815260206004820152601e60248201527f456e756d657261626c654d61703a206e6f6e6578697374656e74206b657900006044820152606401610344565b60006119c5836001600160a01b038416611bd1565b606060006119c583611c20565b6000838152600460205260409020611b08908361ffff8416611c7c565b506001600160a01b0382166000908152600660205260409020611b2b9084611b82565b50604080516001600160a01b038416815261ffff8316602082015284917fd56dfe489b9c00fdf1898c1d84b4cbb744d9f288298856904997e25873866eec910160405180910390a2505050565b6000610c94825490565b60006119c58383611bd1565b60008080611b9c8585611c92565b600081815260029690960160205260409095205494959350505050565b600081815260018301602052604081205415156119c5565b6000818152600183016020526040812054611c1857508154600181810184556000848152602080822090930184905584548482528286019093526040902091909155610c94565b506000610c94565b606081600001805480602002602001604051908101604052809291908181526020018280548015611c7057602002820191906000526020600020905b815481526020019060010190808311611c5c575b50505050509050919050565b6000611a29846001600160a01b03851684611a0c565b60006119c583836000826000018281548110611cb057611cb0612682565b9060005260206000200154905092915050565b828054611ccf90612743565b90600052602060002090601f016020900481019282611cf15760008555611d37565b82601f10611d0a57805160ff1916838001178555611d37565b82800160010185558215611d37579182015b82811115611d37578251825591602001919060010190611d1c565b50611d43929150611d47565b5090565b5b80821115611d435760008155600101611d48565b634e487b7160e01b600052604160045260246000fd5b604080519081016001600160401b0381118282101715611d9457611d94611d5c565b60405290565b604051601f8201601f191681016001600160401b0381118282101715611dc257611dc2611d5c565b604052919050565b600082601f830112611ddb57600080fd5b81356001600160401b03811115611df457611df4611d5c565b611e07601f8201601f1916602001611d9a565b818152846020838601011115611e1c57600080fd5b816020850160208301376000918101602001919091529392505050565b803563ffffffff81168114611e4d57600080fd5b919050565b60008060408385031215611e6557600080fd5b8235915060208301356001600160401b0380821115611e8357600080fd5b9084019060608287031215611e9757600080fd5b604051606081018181108382111715611eb257611eb2611d5c565b604052823582811115611ec457600080fd5b611ed088828601611dca565b82525060208301358281168114611ee657600080fd5b6020820152611ef760408401611e39565b60408201528093505050509250929050565b600060208284031215611f1b57600080fd5b5035919050565b60006001600160401b03821115611f3b57611f3b611d5c565b5060051b60200190565b80356001600160a01b0381168114611e4d57600080fd5b600082601f830112611f6d57600080fd5b81356020611f82611f7d83611f22565b611d9a565b82815260059290921b84018101918181019086841115611fa157600080fd5b8286015b84811015611fc357611fb681611f45565b8352918301918301611fa5565b509695505050505050565b803561ffff81168114611e4d57600080fd5b600082601f830112611ff157600080fd5b81356020612001611f7d83611f22565b82815260059290921b8401810191818101908684111561202057600080fd5b8286015b84811015611fc35761203581611fce565b8352918301918301612024565b60008060006060848603121561205757600080fd5b8335925060208401356001600160401b038082111561207557600080fd5b61208187838801611f5c565b9350604086013591508082111561209757600080fd5b506120a486828701611fe0565b9150509250925092565b6000806000606084860312156120c357600080fd5b83359250602084013591506120da60408501611f45565b90509250925092565b6000815180845260005b81811015612109576020818501810151868301820152016120ed565b8181111561211b576000602083870101525b50601f01601f19169290920160200192915050565b6000602080830181845280855180835260408601915060408160051b870101925083870160005b8281101561218557603f198886030184526121738583516120e3565b94509285019290850190600101612157565b5092979650505050505050565b600080604083850312156121a557600080fd5b50508035926020909101359150565b6020815260008251606060208401526121d060808401826120e3565b90506001600160401b03602085015116604084015263ffffffff60408501511660608401528091505092915050565b600081518084526020808501945080840160005b838110156122385781516001600160a01b031687529582019590820190600101612213565b509495945050505050565b60608152600061225660608301866121ff565b82810360208481019190915285518083528682019282019060005b8181101561229157845161ffff1683529383019391830191600101612271565b50508481036040860152855180825290820192508186019060005b818110156122c8578251855293830193918301916001016122ac565b509298975050505050505050565b60a0815260006122e960a08301886120e3565b6001600160a01b039690961660208301525061ffff93841660408201526001600160f81b0319929092166060830152909116608090910152919050565b6000806040838503121561233957600080fd5b8235915060208301356001600160401b0381111561235657600080fd5b61236285828601611f5c565b9150509250929050565b6020815260006119c560208301846121ff565b60006020828403121561239157600080fd5b6119c582611f45565b604080825283519082018190526000906020906060840190828701845b828110156123d3578151845292840192908401906001016123b7565b5050508381038285015284518082528583019183019060005b818110156124125783516001600160f81b031916835292840192918401916001016123ec565b5090979650505050505050565b60008060006060848603121561243457600080fd5b83359250602080850135925060408501356001600160401b038082111561245a57600080fd5b818701915087601f83011261246e57600080fd5b813561247c611f7d82611f22565b81815260059190911b8301840190848101908a83111561249b57600080fd5b8585015b838110156124d3578035858111156124b75760008081fd5b6124c58d89838a0101611dca565b84525091860191860161249f565b508096505050505050509250925092565b600082601f8301126124f557600080fd5b81356020612505611f7d83611f22565b82815260069290921b8401810191818101908684111561252457600080fd5b8286015b84811015611fc357604081890312156125415760008081fd5b612549611d72565b61255282611e39565b815261255f858301611fce565b81860152835291830191604001612528565b60008060008060008060c0878903121561258a57600080fd5b86356001600160401b03808211156125a157600080fd5b6125ad8a838b01611dca565b97506125bb60208a01611fce565b965060408901359150808211156125d157600080fd5b6125dd8a838b01611f5c565b955060608901359150808211156125f357600080fd5b6125ff8a838b01611fe0565b9450608089013591508082111561261557600080fd5b6126218a838b01611f5c565b935060a089013591508082111561263757600080fd5b5061264489828a016124e4565b9150509295509295509295565b634e487b7160e01b600052601160045260246000fd5b600060001982141561267b5761267b612651565b5060010190565b634e487b7160e01b600052603260045260246000fd5b60208082526011908201527024b73b30b634b21034b734ba34b0ba37b960791b604082015260600190565b6020808252601c908201527f4f6e6c7920617661696c61626c6520696e204452414654206d6f646500000000604082015260600190565b600061ffff8381169083168181101561271557612715612651565b039392505050565b600061ffff80831681851680830382111561273a5761273a612651565b01949350505050565b600181811c9082168061275757607f821691505b6020821081141561277857634e487b7160e01b600052602260045260246000fd5b50919050565b60008282101561279057612790612651565b500390565b602081526000825160a060208401526127b160c08401826120e3565b905060018060a01b036020850151166040840152604084015161ffff808216606086015260ff60f81b60608701511660808601528060808701511660a08601525050809150509291505056fea2646970667358221220acc3070db8a1b203f112ff7bb21e6dbfaa46124b95e3d699e3361b5c32ef5b3f64736f6c63430008090033",
  "devdoc": {
    "kind": "dev",
    "methods": {},
    "version": 1
  },
  "userdoc": {
    "kind": "user",
    "methods": {},
    "version": 1
  },
  "storageLayout": {
    "storage": [
      {
        "astId": 2098,
        "contract": "contracts/BtcVault.sol:BtcVault",
        "label": "vaults",
        "offset": 0,
        "slot": "0",
        "type": "t_array(t_struct(Vault)2082_storage)dyn_storage"
      },
      {
        "astId": 2102,
        "contract": "contracts/BtcVault.sol:BtcVault",
        "label": "timelockThresholds",
        "offset": 0,
        "slot": "1",
        "type": "t_array(t_struct(TimelockThreshold)2087_storage)dyn_storage"
      },
      {
        "astId": 2106,
        "contract": "contracts/BtcVault.sol:BtcVault",
        "label": "nextProposalId",
        "offset": 0,
        "slot": "2",
        "type": "t_mapping(t_uint256,t_uint256)"
      },
      {
        "astId": 2111,
        "contract": "contracts/BtcVault.sol:BtcVault",
        "label": "signatoryPubkeys",
        "offset": 0,
        "slot": "3",
        "type": "t_mapping(t_uint256,t_struct(Bytes32ToBytes32Map)327_storage)"
      },
      {
        "astId": 2116,
        "contract": "contracts/BtcVault.sol:BtcVault",
        "label": "signatoryShares",
        "offset": 0,
        "slot": "4",
        "type": "t_mapping(t_uint256,t_struct(AddressToUintMap)1001_storage)"
      },
      {
        "astId": 2121,
        "contract": "contracts/BtcVault.sol:BtcVault",
        "label": "authorizedAddresses",
        "offset": 0,
        "slot": "5",
        "type": "t_mapping(t_uint256,t_struct(AddressSet)1745_storage)"
      },
      {
        "astId": 2126,
        "contract": "contracts/BtcVault.sol:BtcVault",
        "label": "signatoryVaults",
        "offset": 0,
        "slot": "6",
        "type": "t_mapping(t_address,t_struct(UintSet)1902_storage)"
      },
      {
        "astId": 2133,
        "contract": "contracts/BtcVault.sol:BtcVault",
        "label": "withdrawRequests",
        "offset": 0,
        "slot": "7",
        "type": "t_mapping(t_uint256,t_mapping(t_uint256,t_struct(WithdrawRequest)2094_storage))"
      },
      {
        "astId": 2142,
        "contract": "contracts/BtcVault.sol:BtcVault",
        "label": "withdrawRequestSigs",
        "offset": 0,
        "slot": "8",
        "type": "t_mapping(t_uint256,t_mapping(t_uint256,t_mapping(t_address,t_array(t_bytes_storage)dyn_storage)))"
      }
    ],
    "types": {
      "t_address": {
        "encoding": "inplace",
        "label": "address",
        "numberOfBytes": "20"
      },
      "t_array(t_bytes32)dyn_storage": {
        "base": "t_bytes32",
        "encoding": "dynamic_array",
        "label": "bytes32[]",
        "numberOfBytes": "32"
      },
      "t_array(t_bytes_storage)dyn_storage": {
        "base": "t_bytes_storage",
        "encoding": "dynamic_array",
        "label": "bytes[]",
        "numberOfBytes": "32"
      },
      "t_array(t_struct(TimelockThreshold)2087_storage)dyn_storage": {
        "base": "t_struct(TimelockThreshold)2087_storage",
        "encoding": "dynamic_array",
        "label": "struct BtcVault.TimelockThreshold[]",
        "numberOfBytes": "32"
      },
      "t_array(t_struct(Vault)2082_storage)dyn_storage": {
        "base": "t_struct(Vault)2082_storage",
        "encoding": "dynamic_array",
        "label": "struct BtcVault.Vault[]",
        "numberOfBytes": "32"
      },
      "t_bytes1": {
        "encoding": "inplace",
        "label": "bytes1",
        "numberOfBytes": "1"
      },
      "t_bytes32": {
        "encoding": "inplace",
        "label": "bytes32",
        "numberOfBytes": "32"
      },
      "t_bytes_storage": {
        "encoding": "bytes",
        "label": "bytes",
        "numberOfBytes": "32"
      },
      "t_mapping(t_address,t_array(t_bytes_storage)dyn_storage)": {
        "encoding": "mapping",
        "key": "t_address",
        "label": "mapping(address => bytes[])",
        "numberOfBytes": "32",
        "value": "t_array(t_bytes_storage)dyn_storage"
      },
      "t_mapping(t_address,t_struct(UintSet)1902_storage)": {
        "encoding": "mapping",
        "key": "t_address",
        "label": "mapping(address => struct EnumerableSet.UintSet)",
        "numberOfBytes": "32",
        "value": "t_struct(UintSet)1902_storage"
      },
      "t_mapping(t_bytes32,t_bytes32)": {
        "encoding": "mapping",
        "key": "t_bytes32",
        "label": "mapping(bytes32 => bytes32)",
        "numberOfBytes": "32",
        "value": "t_bytes32"
      },
      "t_mapping(t_bytes32,t_uint256)": {
        "encoding": "mapping",
        "key": "t_bytes32",
        "label": "mapping(bytes32 => uint256)",
        "numberOfBytes": "32",
        "value": "t_uint256"
      },
      "t_mapping(t_uint256,t_mapping(t_address,t_array(t_bytes_storage)dyn_storage))": {
        "encoding": "mapping",
        "key": "t_uint256",
        "label": "mapping(uint256 => mapping(address => bytes[]))",
        "numberOfBytes": "32",
        "value": "t_mapping(t_address,t_array(t_bytes_storage)dyn_storage)"
      },
      "t_mapping(t_uint256,t_mapping(t_uint256,t_mapping(t_address,t_array(t_bytes_storage)dyn_storage)))": {
        "encoding": "mapping",
        "key": "t_uint256",
        "label": "mapping(uint256 => mapping(uint256 => mapping(address => bytes[])))",
        "numberOfBytes": "32",
        "value": "t_mapping(t_uint256,t_mapping(t_address,t_array(t_bytes_storage)dyn_storage))"
      },
      "t_mapping(t_uint256,t_mapping(t_uint256,t_struct(WithdrawRequest)2094_storage))": {
        "encoding": "mapping",
        "key": "t_uint256",
        "label": "mapping(uint256 => mapping(uint256 => struct BtcVault.WithdrawRequest))",
        "numberOfBytes": "32",
        "value": "t_mapping(t_uint256,t_struct(WithdrawRequest)2094_storage)"
      },
      "t_mapping(t_uint256,t_struct(AddressSet)1745_storage)": {
        "encoding": "mapping",
        "key": "t_uint256",
        "label": "mapping(uint256 => struct EnumerableSet.AddressSet)",
        "numberOfBytes": "32",
        "value": "t_struct(AddressSet)1745_storage"
      },
      "t_mapping(t_uint256,t_struct(AddressToUintMap)1001_storage)": {
        "encoding": "mapping",
        "key": "t_uint256",
        "label": "mapping(uint256 => struct EnumerableMap.AddressToUintMap)",
        "numberOfBytes": "32",
        "value": "t_struct(AddressToUintMap)1001_storage"
      },
      "t_mapping(t_uint256,t_struct(Bytes32ToBytes32Map)327_storage)": {
        "encoding": "mapping",
        "key": "t_uint256",
        "label": "mapping(uint256 => struct EnumerableMap.Bytes32ToBytes32Map)",
        "numberOfBytes": "32",
        "value": "t_struct(Bytes32ToBytes32Map)327_storage"
      },
      "t_mapping(t_uint256,t_struct(WithdrawRequest)2094_storage)": {
        "encoding": "mapping",
        "key": "t_uint256",
        "label": "mapping(uint256 => struct BtcVault.WithdrawRequest)",
        "numberOfBytes": "32",
        "value": "t_struct(WithdrawRequest)2094_storage"
      },
      "t_mapping(t_uint256,t_uint256)": {
        "encoding": "mapping",
        "key": "t_uint256",
        "label": "mapping(uint256 => uint256)",
        "numberOfBytes": "32",
        "value": "t_uint256"
      },
      "t_string_storage": {
        "encoding": "bytes",
        "label": "string",
        "numberOfBytes": "32"
      },
      "t_struct(AddressSet)1745_storage": {
        "encoding": "inplace",
        "label": "struct EnumerableSet.AddressSet",
        "members": [
          {
            "astId": 1744,
            "contract": "contracts/BtcVault.sol:BtcVault",
            "label": "_inner",
            "offset": 0,
            "slot": "0",
            "type": "t_struct(Set)1444_storage"
          }
        ],
        "numberOfBytes": "64"
      },
      "t_struct(AddressToUintMap)1001_storage": {
        "encoding": "inplace",
        "label": "struct EnumerableMap.AddressToUintMap",
        "members": [
          {
            "astId": 1000,
            "contract": "contracts/BtcVault.sol:BtcVault",
            "label": "_inner",
            "offset": 0,
            "slot": "0",
            "type": "t_struct(Bytes32ToBytes32Map)327_storage"
          }
        ],
        "numberOfBytes": "96"
      },
      "t_struct(Bytes32Set)1638_storage": {
        "encoding": "inplace",
        "label": "struct EnumerableSet.Bytes32Set",
        "members": [
          {
            "astId": 1637,
            "contract": "contracts/BtcVault.sol:BtcVault",
            "label": "_inner",
            "offset": 0,
            "slot": "0",
            "type": "t_struct(Set)1444_storage"
          }
        ],
        "numberOfBytes": "64"
      },
      "t_struct(Bytes32ToBytes32Map)327_storage": {
        "encoding": "inplace",
        "label": "struct EnumerableMap.Bytes32ToBytes32Map",
        "members": [
          {
            "astId": 322,
            "contract": "contracts/BtcVault.sol:BtcVault",
            "label": "_keys",
            "offset": 0,
            "slot": "0",
            "type": "t_struct(Bytes32Set)1638_storage"
          },
          {
            "astId": 326,
            "contract": "contracts/BtcVault.sol:BtcVault",
            "label": "_values",
            "offset": 0,
            "slot": "2",
            "type": "t_mapping(t_bytes32,t_bytes32)"
          }
        ],
        "numberOfBytes": "96"
      },
      "t_struct(Set)1444_storage": {
        "encoding": "inplace",
        "label": "struct EnumerableSet.Set",
        "members": [
          {
            "astId": 1439,
            "contract": "contracts/BtcVault.sol:BtcVault",
            "label": "_values",
            "offset": 0,
            "slot": "0",
            "type": "t_array(t_bytes32)dyn_storage"
          },
          {
            "astId": 1443,
            "contract": "contracts/BtcVault.sol:BtcVault",
            "label": "_indexes",
            "offset": 0,
            "slot": "1",
            "type": "t_mapping(t_bytes32,t_uint256)"
          }
        ],
        "numberOfBytes": "64"
      },
      "t_struct(TimelockThreshold)2087_storage": {
        "encoding": "inplace",
        "label": "struct BtcVault.TimelockThreshold",
        "members": [
          {
            "astId": 2084,
            "contract": "contracts/BtcVault.sol:BtcVault",
            "label": "timelock",
            "offset": 0,
            "slot": "0",
            "type": "t_uint32"
          },
          {
            "astId": 2086,
            "contract": "contracts/BtcVault.sol:BtcVault",
            "label": "threshold",
            "offset": 4,
            "slot": "0",
            "type": "t_uint16"
          }
        ],
        "numberOfBytes": "32"
      },
      "t_struct(UintSet)1902_storage": {
        "encoding": "inplace",
        "label": "struct EnumerableSet.UintSet",
        "members": [
          {
            "astId": 1901,
            "contract": "contracts/BtcVault.sol:BtcVault",
            "label": "_inner",
            "offset": 0,
            "slot": "0",
            "type": "t_struct(Set)1444_storage"
          }
        ],
        "numberOfBytes": "64"
      },
      "t_struct(Vault)2082_storage": {
        "encoding": "inplace",
        "label": "struct BtcVault.Vault",
        "members": [
          {
            "astId": 2073,
            "contract": "contracts/BtcVault.sol:BtcVault",
            "label": "name",
            "offset": 0,
            "slot": "0",
            "type": "t_string_storage"
          },
          {
            "astId": 2075,
            "contract": "contracts/BtcVault.sol:BtcVault",
            "label": "initiator",
            "offset": 0,
            "slot": "1",
            "type": "t_address"
          },
          {
            "astId": 2077,
            "contract": "contracts/BtcVault.sol:BtcVault",
            "label": "threshold",
            "offset": 20,
            "slot": "1",
            "type": "t_uint16"
          },
          {
            "astId": 2079,
            "contract": "contracts/BtcVault.sol:BtcVault",
            "label": "status",
            "offset": 22,
            "slot": "1",
            "type": "t_bytes1"
          },
          {
            "astId": 2081,
            "contract": "contracts/BtcVault.sol:BtcVault",
            "label": "totalShare",
            "offset": 23,
            "slot": "1",
            "type": "t_uint16"
          }
        ],
        "numberOfBytes": "64"
      },
      "t_struct(WithdrawRequest)2094_storage": {
        "encoding": "inplace",
        "label": "struct BtcVault.WithdrawRequest",
        "members": [
          {
            "astId": 2089,
            "contract": "contracts/BtcVault.sol:BtcVault",
            "label": "scriptPubkey",
            "offset": 0,
            "slot": "0",
            "type": "t_bytes_storage"
          },
          {
            "astId": 2091,
            "contract": "contracts/BtcVault.sol:BtcVault",
            "label": "amount",
            "offset": 0,
            "slot": "1",
            "type": "t_uint64"
          },
          {
            "astId": 2093,
            "contract": "contracts/BtcVault.sol:BtcVault",
            "label": "fee",
            "offset": 8,
            "slot": "1",
            "type": "t_uint32"
          }
        ],
        "numberOfBytes": "64"
      },
      "t_uint16": {
        "encoding": "inplace",
        "label": "uint16",
        "numberOfBytes": "2"
      },
      "t_uint256": {
        "encoding": "inplace",
        "label": "uint256",
        "numberOfBytes": "32"
      },
      "t_uint32": {
        "encoding": "inplace",
        "label": "uint32",
        "numberOfBytes": "4"
      },
      "t_uint64": {
        "encoding": "inplace",
        "label": "uint64",
        "numberOfBytes": "8"
      }
    }
  }
}