{
  "address": "0xeDd108e6EE863acBFAc98312773492Caca8c0398",
  "abi": [
    {
      "anonymous": false,
      "inputs": [
        {
          "indexed": true,
          "internalType": "uint256",
          "name": "vaultId",
          "type": "uint256"
        },
        {
          "indexed": false,
          "internalType": "address",
          "name": "signatory",
          "type": "address"
        },
        {
          "indexed": false,
          "internalType": "bytes32",
          "name": "btcPubkey",
          "type": "bytes32"
        }
      ],
      "name": "Accepted",
      "type": "event"
    },
    {
      "anonymous": false,
      "inputs": [
        {
          "indexed": true,
          "internalType": "uint256",
          "name": "vaultId",
          "type": "uint256"
        },
        {
          "indexed": false,
          "internalType": "address",
          "name": "signatory",
          "type": "address"
        },
        {
          "indexed": false,
          "internalType": "uint256",
          "name": "share",
          "type": "uint256"
        }
      ],
      "name": "Added",
      "type": "event"
    },
    {
      "anonymous": false,
      "inputs": [
        {
          "indexed": true,
          "internalType": "uint256",
          "name": "vaultId",
          "type": "uint256"
        },
        {
          "indexed": false,
          "internalType": "address",
          "name": "signatory",
          "type": "address"
        },
        {
          "indexed": false,
          "internalType": "uint256",
          "name": "oldShare",
          "type": "uint256"
        },
        {
          "indexed": false,
          "internalType": "uint256",
          "name": "newShare",
          "type": "uint256"
        }
      ],
      "name": "Edited",
      "type": "event"
    },
    {
      "anonymous": false,
      "inputs": [
        {
          "indexed": true,
          "internalType": "uint256",
          "name": "vaultId",
          "type": "uint256"
        }
      ],
      "name": "Finalized",
      "type": "event"
    },
    {
      "anonymous": false,
      "inputs": [
        {
          "indexed": true,
          "internalType": "uint256",
          "name": "vaultId",
          "type": "uint256"
        },
        {
          "components": [
            {
              "internalType": "string",
              "name": "name",
              "type": "string"
            },
            {
              "internalType": "address",
              "name": "initiator",
              "type": "address"
            },
            {
              "internalType": "uint256",
              "name": "totalShare",
              "type": "uint256"
            },
            {
              "internalType": "uint8",
              "name": "threshold",
              "type": "uint8"
            },
            {
              "internalType": "bytes1",
              "name": "status",
              "type": "bytes1"
            }
          ],
          "indexed": false,
          "internalType": "struct BtcVault.Vault",
          "name": "vault",
          "type": "tuple"
        }
      ],
      "name": "Initialized",
      "type": "event"
    },
    {
      "inputs": [
        {
          "internalType": "uint256",
          "name": "vaultId",
          "type": "uint256"
        },
        {
          "internalType": "bytes32",
          "name": "btcPubkey",
          "type": "bytes32"
        }
      ],
      "name": "approveSignatory",
      "outputs": [],
      "stateMutability": "nonpayable",
      "type": "function"
    },
    {
      "inputs": [],
      "name": "approveWithdrawal",
      "outputs": [],
      "stateMutability": "nonpayable",
      "type": "function"
    },
    {
      "inputs": [
        {
          "internalType": "uint256",
          "name": "vaultId",
          "type": "uint256"
        },
        {
          "internalType": "address[]",
          "name": "signatories",
          "type": "address[]"
        },
        {
          "internalType": "uint256[]",
          "name": "shares",
          "type": "uint256[]"
        }
      ],
      "name": "editSignatories",
      "outputs": [],
      "stateMutability": "nonpayable",
      "type": "function"
    },
    {
      "inputs": [
        {
          "internalType": "uint256",
          "name": "vaultId",
          "type": "uint256"
        }
      ],
      "name": "finalizeVault",
      "outputs": [],
      "stateMutability": "nonpayable",
      "type": "function"
    },
    {
      "inputs": [
        {
          "internalType": "uint256",
          "name": "vaultId",
          "type": "uint256"
        }
      ],
      "name": "getSignatories",
      "outputs": [
        {
          "internalType": "address[]",
          "name": "",
          "type": "address[]"
        },
        {
          "internalType": "uint256[]",
          "name": "",
          "type": "uint256[]"
        },
        {
          "internalType": "bytes32[]",
          "name": "",
          "type": "bytes32[]"
        }
      ],
      "stateMutability": "view",
      "type": "function"
    },
    {
      "inputs": [],
      "name": "getVaultLength",
      "outputs": [
        {
          "internalType": "uint256",
          "name": "",
          "type": "uint256"
        }
      ],
      "stateMutability": "view",
      "type": "function"
    },
    {
      "inputs": [
        {
          "internalType": "string",
          "name": "name",
          "type": "string"
        },
        {
          "internalType": "uint8",
          "name": "threshold",
          "type": "uint8"
        },
        {
          "internalType": "address[]",
          "name": "signatories",
          "type": "address[]"
        },
        {
          "internalType": "uint256[]",
          "name": "shares",
          "type": "uint256[]"
        }
      ],
      "name": "initializeVault",
      "outputs": [],
      "stateMutability": "nonpayable",
      "type": "function"
    },
    {
      "inputs": [],
      "name": "initiateWithdrawal",
      "outputs": [],
      "stateMutability": "nonpayable",
      "type": "function"
    },
    {
      "inputs": [
        {
          "internalType": "uint256",
          "name": "",
          "type": "uint256"
        }
      ],
      "name": "vaults",
      "outputs": [
        {
          "internalType": "string",
          "name": "name",
          "type": "string"
        },
        {
          "internalType": "address",
          "name": "initiator",
          "type": "address"
        },
        {
          "internalType": "uint256",
          "name": "totalShare",
          "type": "uint256"
        },
        {
          "internalType": "uint8",
          "name": "threshold",
          "type": "uint8"
        },
        {
          "internalType": "bytes1",
          "name": "status",
          "type": "bytes1"
        }
      ],
      "stateMutability": "view",
      "type": "function"
    }
  ],
  "transactionHash": "0x8c338492f5c8a90ddd85c3738c2d36a2911dbbcb60cef99c815da3c71f2c17ee",
  "args": [],
  "numDeployments": 1,
  "solcInputHash": "d68453c77e2433e424119eb8bc451c59",
  "bytecode": "0x608060405234801561001057600080fd5b506114c4806100206000396000f3fe608060405234801561001057600080fd5b50600436106100935760003560e01c806365f4c0981161006657806365f4c098146100d3578063812617c7146100fe5780638c64ea4a1461010f578063b51d1d4f146100ab578063e49345af1461013357600080fd5b8063065e8c06146100985780630bb38379146100ad5780632c8b8bb3146100ab5780634aa61646146100c0575b600080fd5b6100ab6100a6366004610ee8565b610146565b005b6100ab6100bb366004610f01565b610306565b6100ab6100ce36600461106a565b610429565b6100e66100e1366004610ee8565b6106dd565b6040516100f593929190611112565b60405180910390f35b6000546040519081526020016100f5565b61012261011d366004610ee8565b6108e2565b6040516100f59594939291906111f6565b6100ab610141366004611259565b6109c3565b806000818154811061015a5761015a611345565b60009182526020909120600490910201600101546001600160a01b031633146101be5760405162461bcd60e51b815260206004820152601160248201527024b73b30b634b21034b734ba34b0ba37b960791b60448201526064015b60405180910390fd5b600080548391908190839081106101d7576101d7611345565b6000918252602090912060049091020160030154610100900460f81b6001600160f81b0319161461021a5760405162461bcd60e51b81526004016101b59061135b565b600083815260016020526040902061023190610bdb565b600084815260026020526040902061024890610bec565b146102955760405162461bcd60e51b815260206004820152601b60248201527f4d69736d617463682073686172657320616e64207075626b657973000000000060448201526064016101b5565b600160f81b600084815481106102ad576102ad611345565b600091825260208220600360049092020101805460f89390931c6101000261ff00199093169290921790915560405184917f839cf22e1ba87ce2f5b9bbf46cf0175a09eed52febdfaac8852478e68203c76391a2505050565b600082815260026020526040902082906103209033610bf7565b6103605760405162461bcd60e51b8152602060048201526011602482015270496e76616c6964207369676e61746f727960781b60448201526064016101b5565b6000805484919081908390811061037957610379611345565b6000918252602090912060049091020160030154610100900460f81b6001600160f81b031916146103bc5760405162461bcd60e51b81526004016101b59061135b565b60008481526001602052604090206103e7906bffffffffffffffffffffffff193360601b1685610c13565b50604080513381526020810185905285917f67fd58733483015fe5529bd439261f9b074e0783528b212f7dc81ae49d4c448d910160405180910390a250505050565b826000818154811061043d5761043d611345565b60009182526020909120600490910201600101546001600160a01b0316331461049c5760405162461bcd60e51b815260206004820152601160248201527024b73b30b634b21034b734ba34b0ba37b960791b60448201526064016101b5565b600080548591908190839081106104b5576104b5611345565b6000918252602090912060049091020160030154610100900460f81b6001600160f81b031916146104f85760405162461bcd60e51b81526004016101b59061135b565b600080868154811061050c5761050c611345565b906000526020600020906004020160020154905060005b85518110156106ab5761056a86828151811061054157610541611345565b6020026020010151600260008a8152602001908152602001600020610bf790919063ffffffff16565b6105af5760405162461bcd60e51b81526020600482015260166024820152754e6f6e2d6578697374656e74207369676e61746f727960501b60448201526064016101b5565b60006105ef8783815181106105c6576105c6611345565b6020026020010151600260008b8152602001908152602001600020610c3890919063ffffffff16565b9050600086838151811061060557610605611345565b6020026020010151905061062c816106268487610c4d90919063ffffffff16565b90610c59565b9350887ff0b9b1c52dccea1674897863bb2b1b6d73f395e91dae367476a223c560d4dabe89858151811061066257610662611345565b602090810291909101810151604080516001600160a01b03909216825291810186905290810184905260600160405180910390a2505080806106a3906113a8565b915050610523565b5080600087815481106106c0576106c0611345565b906000526020600020906004020160020181905550505050505050565b606080606060006106ff60026000878152602001908152602001600020610bec565b905060008167ffffffffffffffff81111561071c5761071c610f23565b604051908082528060200260200182016040528015610745578160200160208202803683370190505b50905060008267ffffffffffffffff81111561076357610763610f23565b60405190808252806020026020018201604052801561078c578160200160208202803683370190505b50905060008367ffffffffffffffff8111156107aa576107aa610f23565b6040519080825280602002602001820160405280156107d3578160200160208202803683370190505b50905060005b848110156108d357600089815260026020526040812081906107fb9084610c65565b915091508186848151811061081257610812611345565b60200260200101906001600160a01b031690816001600160a01b0316815250508085848151811061084557610845611345565b60209081029190910181019190915260008c81526001909152604090206bffffffffffffffffffffffff19606084901b16906108819082610c81565b156108bd5760008c815260016020526040902061089e9082610c8d565b8585815181106108b0576108b0611345565b6020026020010181815250505b50505080806108cb906113a8565b9150506107d9565b50919790965090945092505050565b600081815481106108f257600080fd5b9060005260206000209060040201600091509050806000018054610915906113c3565b80601f0160208091040260200160405190810160405280929190818152602001828054610941906113c3565b801561098e5780601f106109635761010080835404028352916020019161098e565b820191906000526020600020905b81548152906001019060200180831161097157829003601f168201915b5050506001840154600285015460039095015493946001600160a01b039091169390925060ff81169150610100900460f81b85565b8051825114610a145760405162461bcd60e51b815260206004820152601f60248201527f4d69736d61746368207369676e61746f7269657320616e64207368617265730060448201526064016101b5565b600080546040805160a0810182526060808252602082018590529181018490529081018390526080810183905290915b8451811015610ad157610a8a83868381518110610a6357610a63611345565b6020026020010151868481518110610a7d57610a7d611345565b6020026020010151610cfd565b610aba848281518110610a9f57610a9f611345565b60200260200101518360400151610c5990919063ffffffff16565b604083015280610ac9816113a8565b915050610a44565b508581523360208083019190915260ff86166060830152600060808301819052805460018101825590805282518051849360049093027f290decd9548b62a8d60345a988386fc84ba6bc95484008f6362f93160ef3e5630192610b38928492910190610e4f565b5060208201516001820180546001600160a01b039092166001600160a01b0319909216919091179055604080830151600283015560608301516003909201805460809094015160f81c6101000261ffff1990941660ff909316929092179290921790555182907ffc9b2906d41bed402b25a6aa72f8b6bdc2bf1f2d462cad8a1e6c726edb1873d190610bcb9084906113fe565b60405180910390a2505050505050565b6000610be682610d60565b92915050565b6000610be682610bdb565b6000610c0c836001600160a01b038416610c81565b9392505050565b60008281526002840160205260408120829055610c308484610d6a565b949350505050565b6000610c0c836001600160a01b038416610c8d565b6000610c0c828461145f565b6000610c0c8284611476565b6000808080610c748686610d76565b9097909650945050505050565b6000610c0c8383610da1565b600081815260028301602052604081205480151580610cb15750610cb18484610c81565b610c0c5760405162461bcd60e51b815260206004820152601e60248201527f456e756d657261626c654d61703a206e6f6e6578697374656e74206b6579000060448201526064016101b5565b6000838152600260205260409020610d16908383610db9565b50604080516001600160a01b03841681526020810183905284917fcc28be9b37d1b25ed34687c32a4a53e202c9c2b6efdce761d75e4885341e492b910160405180910390a2505050565b6000610be6825490565b6000610c0c8383610dcf565b60008080610d848585610e1e565b600081815260029690960160205260409095205494959350505050565b60008181526001830160205260408120541515610c0c565b6000610c30846001600160a01b03851684610c13565b6000818152600183016020526040812054610e1657508154600181810184556000848152602080822090930184905584548482528286019093526040902091909155610be6565b506000610be6565b6000610c0c83836000826000018281548110610e3c57610e3c611345565b9060005260206000200154905092915050565b828054610e5b906113c3565b90600052602060002090601f016020900481019282610e7d5760008555610ec3565b82601f10610e9657805160ff1916838001178555610ec3565b82800160010185558215610ec3579182015b82811115610ec3578251825591602001919060010190610ea8565b50610ecf929150610ed3565b5090565b5b80821115610ecf5760008155600101610ed4565b600060208284031215610efa57600080fd5b5035919050565b60008060408385031215610f1457600080fd5b50508035926020909101359150565b634e487b7160e01b600052604160045260246000fd5b604051601f8201601f1916810167ffffffffffffffff81118282101715610f6257610f62610f23565b604052919050565b600067ffffffffffffffff821115610f8457610f84610f23565b5060051b60200190565b600082601f830112610f9f57600080fd5b81356020610fb4610faf83610f6a565b610f39565b82815260059290921b84018101918181019086841115610fd357600080fd5b8286015b848110156110045780356001600160a01b0381168114610ff75760008081fd5b8352918301918301610fd7565b509695505050505050565b600082601f83011261102057600080fd5b81356020611030610faf83610f6a565b82815260059290921b8401810191818101908684111561104f57600080fd5b8286015b848110156110045780358352918301918301611053565b60008060006060848603121561107f57600080fd5b83359250602084013567ffffffffffffffff8082111561109e57600080fd5b6110aa87838801610f8e565b935060408601359150808211156110c057600080fd5b506110cd8682870161100f565b9150509250925092565b600081518084526020808501945080840160005b83811015611107578151875295820195908201906001016110eb565b509495945050505050565b606080825284519082018190526000906020906080840190828801845b828110156111545781516001600160a01b03168452928401929084019060010161112f565b5050508381038285015285518082528683019183019060005b818110156111895783518352928401929184019160010161116d565b5050848103604086015261119d81876110d7565b98975050505050505050565b6000815180845260005b818110156111cf576020818501810151868301820152016111b3565b818111156111e1576000602083870101525b50601f01601f19169290920160200192915050565b60a08152600061120960a08301886111a9565b6001600160a01b0396909616602083015250604081019390935260ff9190911660608301526001600160f81b031916608090910152919050565b803560ff8116811461125457600080fd5b919050565b6000806000806080858703121561126f57600080fd5b843567ffffffffffffffff8082111561128757600080fd5b818701915087601f83011261129b57600080fd5b81356020828211156112af576112af610f23565b6112c1601f8301601f19168201610f39565b8281528a828487010111156112d557600080fd5b8282860183830137600081840183015297506112f2898201611243565b96505050604087013591508082111561130a57600080fd5b61131688838901610f8e565b9350606087013591508082111561132c57600080fd5b506113398782880161100f565b91505092959194509250565b634e487b7160e01b600052603260045260246000fd5b6020808252601c908201527f4f6e6c7920617661696c61626c6520696e204452414654206d6f646500000000604082015260600190565b634e487b7160e01b600052601160045260246000fd5b60006000198214156113bc576113bc611392565b5060010190565b600181811c908216806113d757607f821691505b602082108114156113f857634e487b7160e01b600052602260045260246000fd5b50919050565b602081526000825160a0602084015261141a60c08401826111a9565b905060018060a01b0360208501511660408401526040840151606084015260ff606085015116608084015260ff60f81b60808501511660a08401528091505092915050565b60008282101561147157611471611392565b500390565b6000821982111561148957611489611392565b50019056fea264697066735822122052a4835fe04897c4214e6709c09af5cb112474dba1899253a5217fc10fcb7e4c64736f6c63430008090033",
  "devdoc": {
    "kind": "dev",
    "methods": {},
    "version": 1
  },
  "userdoc": {
    "kind": "user",
    "methods": {},
    "version": 1
  },
  "storageLayout": {
    "storage": [
      {
        "astId": 2068,
        "contract": "contracts/BtcVault.sol:BtcVault",
        "label": "vaults",
        "offset": 0,
        "slot": "0",
        "type": "t_array(t_struct(Vault)2064_storage)dyn_storage"
      },
      {
        "astId": 2073,
        "contract": "contracts/BtcVault.sol:BtcVault",
        "label": "signatoryPubkeys",
        "offset": 0,
        "slot": "1",
        "type": "t_mapping(t_uint256,t_struct(Bytes32ToBytes32Map)327_storage)"
      },
      {
        "astId": 2078,
        "contract": "contracts/BtcVault.sol:BtcVault",
        "label": "signatoryShares",
        "offset": 0,
        "slot": "2",
        "type": "t_mapping(t_uint256,t_struct(AddressToUintMap)1001_storage)"
      }
    ],
    "types": {
      "t_address": {
        "encoding": "inplace",
        "label": "address",
        "numberOfBytes": "20"
      },
      "t_array(t_bytes32)dyn_storage": {
        "base": "t_bytes32",
        "encoding": "dynamic_array",
        "label": "bytes32[]",
        "numberOfBytes": "32"
      },
      "t_array(t_struct(Vault)2064_storage)dyn_storage": {
        "base": "t_struct(Vault)2064_storage",
        "encoding": "dynamic_array",
        "label": "struct BtcVault.Vault[]",
        "numberOfBytes": "32"
      },
      "t_bytes1": {
        "encoding": "inplace",
        "label": "bytes1",
        "numberOfBytes": "1"
      },
      "t_bytes32": {
        "encoding": "inplace",
        "label": "bytes32",
        "numberOfBytes": "32"
      },
      "t_mapping(t_bytes32,t_bytes32)": {
        "encoding": "mapping",
        "key": "t_bytes32",
        "label": "mapping(bytes32 => bytes32)",
        "numberOfBytes": "32",
        "value": "t_bytes32"
      },
      "t_mapping(t_bytes32,t_uint256)": {
        "encoding": "mapping",
        "key": "t_bytes32",
        "label": "mapping(bytes32 => uint256)",
        "numberOfBytes": "32",
        "value": "t_uint256"
      },
      "t_mapping(t_uint256,t_struct(AddressToUintMap)1001_storage)": {
        "encoding": "mapping",
        "key": "t_uint256",
        "label": "mapping(uint256 => struct EnumerableMap.AddressToUintMap)",
        "numberOfBytes": "32",
        "value": "t_struct(AddressToUintMap)1001_storage"
      },
      "t_mapping(t_uint256,t_struct(Bytes32ToBytes32Map)327_storage)": {
        "encoding": "mapping",
        "key": "t_uint256",
        "label": "mapping(uint256 => struct EnumerableMap.Bytes32ToBytes32Map)",
        "numberOfBytes": "32",
        "value": "t_struct(Bytes32ToBytes32Map)327_storage"
      },
      "t_string_storage": {
        "encoding": "bytes",
        "label": "string",
        "numberOfBytes": "32"
      },
      "t_struct(AddressToUintMap)1001_storage": {
        "encoding": "inplace",
        "label": "struct EnumerableMap.AddressToUintMap",
        "members": [
          {
            "astId": 1000,
            "contract": "contracts/BtcVault.sol:BtcVault",
            "label": "_inner",
            "offset": 0,
            "slot": "0",
            "type": "t_struct(Bytes32ToBytes32Map)327_storage"
          }
        ],
        "numberOfBytes": "96"
      },
      "t_struct(Bytes32Set)1638_storage": {
        "encoding": "inplace",
        "label": "struct EnumerableSet.Bytes32Set",
        "members": [
          {
            "astId": 1637,
            "contract": "contracts/BtcVault.sol:BtcVault",
            "label": "_inner",
            "offset": 0,
            "slot": "0",
            "type": "t_struct(Set)1444_storage"
          }
        ],
        "numberOfBytes": "64"
      },
      "t_struct(Bytes32ToBytes32Map)327_storage": {
        "encoding": "inplace",
        "label": "struct EnumerableMap.Bytes32ToBytes32Map",
        "members": [
          {
            "astId": 322,
            "contract": "contracts/BtcVault.sol:BtcVault",
            "label": "_keys",
            "offset": 0,
            "slot": "0",
            "type": "t_struct(Bytes32Set)1638_storage"
          },
          {
            "astId": 326,
            "contract": "contracts/BtcVault.sol:BtcVault",
            "label": "_values",
            "offset": 0,
            "slot": "2",
            "type": "t_mapping(t_bytes32,t_bytes32)"
          }
        ],
        "numberOfBytes": "96"
      },
      "t_struct(Set)1444_storage": {
        "encoding": "inplace",
        "label": "struct EnumerableSet.Set",
        "members": [
          {
            "astId": 1439,
            "contract": "contracts/BtcVault.sol:BtcVault",
            "label": "_values",
            "offset": 0,
            "slot": "0",
            "type": "t_array(t_bytes32)dyn_storage"
          },
          {
            "astId": 1443,
            "contract": "contracts/BtcVault.sol:BtcVault",
            "label": "_indexes",
            "offset": 0,
            "slot": "1",
            "type": "t_mapping(t_bytes32,t_uint256)"
          }
        ],
        "numberOfBytes": "64"
      },
      "t_struct(Vault)2064_storage": {
        "encoding": "inplace",
        "label": "struct BtcVault.Vault",
        "members": [
          {
            "astId": 2055,
            "contract": "contracts/BtcVault.sol:BtcVault",
            "label": "name",
            "offset": 0,
            "slot": "0",
            "type": "t_string_storage"
          },
          {
            "astId": 2057,
            "contract": "contracts/BtcVault.sol:BtcVault",
            "label": "initiator",
            "offset": 0,
            "slot": "1",
            "type": "t_address"
          },
          {
            "astId": 2059,
            "contract": "contracts/BtcVault.sol:BtcVault",
            "label": "totalShare",
            "offset": 0,
            "slot": "2",
            "type": "t_uint256"
          },
          {
            "astId": 2061,
            "contract": "contracts/BtcVault.sol:BtcVault",
            "label": "threshold",
            "offset": 0,
            "slot": "3",
            "type": "t_uint8"
          },
          {
            "astId": 2063,
            "contract": "contracts/BtcVault.sol:BtcVault",
            "label": "status",
            "offset": 1,
            "slot": "3",
            "type": "t_bytes1"
          }
        ],
        "numberOfBytes": "128"
      },
      "t_uint256": {
        "encoding": "inplace",
        "label": "uint256",
        "numberOfBytes": "32"
      },
      "t_uint8": {
        "encoding": "inplace",
        "label": "uint8",
        "numberOfBytes": "1"
      }
    }
  }
}