{
  "address": "0xab0508cde6ce576bb3b90d62701f0fab9a0c821c",
  "abi": [
    {
      "anonymous": false,
      "inputs": [
        {
          "indexed": true,
          "internalType": "uint256",
          "name": "vaultId",
          "type": "uint256"
        },
        {
          "indexed": false,
          "internalType": "address",
          "name": "signatory",
          "type": "address"
        },
        {
          "indexed": false,
          "internalType": "bytes32",
          "name": "btcPubkey",
          "type": "bytes32"
        }
      ],
      "name": "Accepted",
      "type": "event"
    },
    {
      "anonymous": false,
      "inputs": [
        {
          "indexed": true,
          "internalType": "uint256",
          "name": "vaultId",
          "type": "uint256"
        },
        {
          "indexed": false,
          "internalType": "address",
          "name": "signatory",
          "type": "address"
        },
        {
          "indexed": false,
          "internalType": "uint16",
          "name": "share",
          "type": "uint16"
        }
      ],
      "name": "Added",
      "type": "event"
    },
    {
      "anonymous": false,
      "inputs": [
        {
          "indexed": true,
          "internalType": "uint256",
          "name": "vaultId",
          "type": "uint256"
        },
        {
          "indexed": false,
          "internalType": "address",
          "name": "signatory",
          "type": "address"
        },
        {
          "indexed": false,
          "internalType": "uint16",
          "name": "oldShare",
          "type": "uint16"
        },
        {
          "indexed": false,
          "internalType": "uint16",
          "name": "newShare",
          "type": "uint16"
        }
      ],
      "name": "Edited",
      "type": "event"
    },
    {
      "anonymous": false,
      "inputs": [
        {
          "indexed": true,
          "internalType": "uint256",
          "name": "vaultId",
          "type": "uint256"
        }
      ],
      "name": "Finalized",
      "type": "event"
    },
    {
      "anonymous": false,
      "inputs": [
        {
          "indexed": true,
          "internalType": "uint256",
          "name": "vaultId",
          "type": "uint256"
        },
        {
          "components": [
            {
              "internalType": "string",
              "name": "name",
              "type": "string"
            },
            {
              "internalType": "address",
              "name": "initiator",
              "type": "address"
            },
            {
              "internalType": "uint16",
              "name": "threshold",
              "type": "uint16"
            },
            {
              "internalType": "bytes1",
              "name": "status",
              "type": "bytes1"
            },
            {
              "internalType": "uint256",
              "name": "totalShare",
              "type": "uint256"
            }
          ],
          "indexed": false,
          "internalType": "struct BtcVault.Vault",
          "name": "vault",
          "type": "tuple"
        }
      ],
      "name": "Initialized",
      "type": "event"
    },
    {
      "inputs": [
        {
          "internalType": "uint256",
          "name": "vaultId",
          "type": "uint256"
        },
        {
          "internalType": "address[]",
          "name": "authorizedAddrList",
          "type": "address[]"
        }
      ],
      "name": "addAuthorizedAddresses",
      "outputs": [],
      "stateMutability": "nonpayable",
      "type": "function"
    },
    {
      "inputs": [
        {
          "internalType": "uint256",
          "name": "vaultId",
          "type": "uint256"
        },
        {
          "internalType": "bytes32",
          "name": "btcPubkey",
          "type": "bytes32"
        }
      ],
      "name": "approveSignatory",
      "outputs": [],
      "stateMutability": "nonpayable",
      "type": "function"
    },
    {
      "inputs": [
        {
          "internalType": "uint256",
          "name": "vaultId",
          "type": "uint256"
        }
      ],
      "name": "approveWithdrawal",
      "outputs": [],
      "stateMutability": "nonpayable",
      "type": "function"
    },
    {
      "inputs": [
        {
          "internalType": "uint256",
          "name": "vaultId",
          "type": "uint256"
        },
        {
          "internalType": "address[]",
          "name": "signatories",
          "type": "address[]"
        },
        {
          "internalType": "uint16[]",
          "name": "shares",
          "type": "uint16[]"
        }
      ],
      "name": "editSignatories",
      "outputs": [],
      "stateMutability": "nonpayable",
      "type": "function"
    },
    {
      "inputs": [
        {
          "internalType": "uint256",
          "name": "vaultId",
          "type": "uint256"
        }
      ],
      "name": "finalizeVault",
      "outputs": [],
      "stateMutability": "nonpayable",
      "type": "function"
    },
    {
      "inputs": [
        {
          "internalType": "uint256",
          "name": "vaultId",
          "type": "uint256"
        }
      ],
      "name": "getAuthorizedAddresses",
      "outputs": [
        {
          "internalType": "address[]",
          "name": "",
          "type": "address[]"
        }
      ],
      "stateMutability": "view",
      "type": "function"
    },
    {
      "inputs": [
        {
          "internalType": "uint256",
          "name": "vaultId",
          "type": "uint256"
        }
      ],
      "name": "getSignatories",
      "outputs": [
        {
          "internalType": "address[]",
          "name": "",
          "type": "address[]"
        },
        {
          "internalType": "uint16[]",
          "name": "",
          "type": "uint16[]"
        },
        {
          "internalType": "bytes32[]",
          "name": "",
          "type": "bytes32[]"
        }
      ],
      "stateMutability": "view",
      "type": "function"
    },
    {
      "inputs": [
        {
          "internalType": "address",
          "name": "signatory",
          "type": "address"
        }
      ],
      "name": "getSignatoryVaults",
      "outputs": [
        {
          "internalType": "uint256[]",
          "name": "",
          "type": "uint256[]"
        },
        {
          "internalType": "bytes1[]",
          "name": "",
          "type": "bytes1[]"
        }
      ],
      "stateMutability": "view",
      "type": "function"
    },
    {
      "inputs": [],
      "name": "getVaultLength",
      "outputs": [
        {
          "internalType": "uint256",
          "name": "",
          "type": "uint256"
        }
      ],
      "stateMutability": "view",
      "type": "function"
    },
    {
      "inputs": [
        {
          "internalType": "string",
          "name": "name",
          "type": "string"
        },
        {
          "internalType": "uint8",
          "name": "threshold",
          "type": "uint8"
        },
        {
          "internalType": "address[]",
          "name": "signatories",
          "type": "address[]"
        },
        {
          "internalType": "uint16[]",
          "name": "shares",
          "type": "uint16[]"
        },
        {
          "internalType": "address[]",
          "name": "authorizedAddrList",
          "type": "address[]"
        },
        {
          "components": [
            {
              "internalType": "uint32",
              "name": "timelock",
              "type": "uint32"
            },
            {
              "internalType": "uint16",
              "name": "threshold",
              "type": "uint16"
            }
          ],
          "internalType": "struct BtcVault.TimelockThreshold[]",
          "name": "tsList",
          "type": "tuple[]"
        }
      ],
      "name": "initializeVault",
      "outputs": [],
      "stateMutability": "nonpayable",
      "type": "function"
    },
    {
      "inputs": [
        {
          "internalType": "uint256",
          "name": "vaultId",
          "type": "uint256"
        }
      ],
      "name": "initiateWithdrawal",
      "outputs": [],
      "stateMutability": "nonpayable",
      "type": "function"
    },
    {
      "inputs": [
        {
          "internalType": "uint256",
          "name": "",
          "type": "uint256"
        }
      ],
      "name": "timelockThresholds",
      "outputs": [
        {
          "internalType": "uint32",
          "name": "timelock",
          "type": "uint32"
        },
        {
          "internalType": "uint16",
          "name": "threshold",
          "type": "uint16"
        }
      ],
      "stateMutability": "view",
      "type": "function"
    },
    {
      "inputs": [
        {
          "internalType": "uint256",
          "name": "",
          "type": "uint256"
        }
      ],
      "name": "vaults",
      "outputs": [
        {
          "internalType": "string",
          "name": "name",
          "type": "string"
        },
        {
          "internalType": "address",
          "name": "initiator",
          "type": "address"
        },
        {
          "internalType": "uint16",
          "name": "threshold",
          "type": "uint16"
        },
        {
          "internalType": "bytes1",
          "name": "status",
          "type": "bytes1"
        },
        {
          "internalType": "uint256",
          "name": "totalShare",
          "type": "uint256"
        }
      ],
      "stateMutability": "view",
      "type": "function"
    }
  ],
  "transactionHash": "0xa6a5067af1ee6bb02b2e06fb849355935efe4be06df873eaca46d9745a1b38eb",
  "args": [],
  "numDeployments": 3,
  "solcInputHash": "c62081c44a4790a780a8f4abb63cd5a7",
  "bytecode": "0x608060405234801561001057600080fd5b50611fb9806100206000396000f3fe608060405234801561001057600080fd5b50600436106100cf5760003560e01c80638c64ea4a1161008c5780639eceddea116100665780639eceddea146101b5578063ad676c89146101c6578063b3faf392146101e7578063b9242bc3146101fa57600080fd5b80638c64ea4a1461015e5780638ff3ba0b146101825780639640b4921461019557600080fd5b8063065e8c06146100d4578063079bc681146100e95780630bb38379146100fc57806312edde5e1461010f57806365f4c09814610122578063812617c71461014d575b600080fd5b6100e76100e2366004611769565b61022c565b005b6100e76100f7366004611918565b610447565b6100e761010a366004611985565b6106ee565b6100e761011d366004611769565b61084f565b610135610130366004611769565b6108b9565b604051610144939291906119eb565b60405180910390f35b600054604051908152602001610144565b61017161016c366004611769565b610abc565b604051610144959493929190611acb565b6100e7610190366004611b19565b610ba0565b6101a86101a3366004611769565b610c52565b6040516101449190611b60565b6100e76101c3366004611769565b50565b6101d96101d4366004611b73565b610c72565b604051610144929190611b8e565b6100e76101f5366004611d2d565b610d9b565b61020d610208366004611769565b611364565b6040805163ffffffff909316835261ffff909116602083015201610144565b806000818154811061024057610240611e0e565b60009182526020909120600390910201600101546001600160a01b031633146102845760405162461bcd60e51b815260040161027b90611e24565b60405180910390fd5b6000805483919081908390811061029d5761029d611e0e565b6000918252602090912060039091020160010154600160b01b900460f81b6001600160f81b031916146102e25760405162461bcd60e51b815260040161027b90611e4f565b60008381526002602052604090206102f990611398565b6000848152600360205260409020610310906113a3565b1461035d5760405162461bcd60e51b815260206004820152601b60248201527f4d69736d617463682073686172657320616e64207075626b6579730000000000604482015260640161027b565b6127106000848154811061037357610373611e0e565b906000526020600020906003020160020154146103d25760405162461bcd60e51b815260206004820152601e60248201527f546f74616c2073686172652076616c7565206f7574206f662072616e67650000604482015260640161027b565b600160f81b600084815481106103ea576103ea611e0e565b600091825260208220600160039092020101805460f89390931c600160b01b0260ff60b01b199093169290921790915560405184917f839cf22e1ba87ce2f5b9bbf46cf0175a09eed52febdfaac8852478e68203c76391a2505050565b826000818154811061045b5761045b611e0e565b60009182526020909120600390910201600101546001600160a01b031633146104965760405162461bcd60e51b815260040161027b90611e24565b600080548591908190839081106104af576104af611e0e565b6000918252602090912060039091020160010154600160b01b900460f81b6001600160f81b031916146104f45760405162461bcd60e51b815260040161027b90611e4f565b600080868154811061050857610508611e0e565b906000526020600020906003020160020154905060005b85518110156106bc5761056686828151811061053d5761053d611e0e565b6020026020010151600360008a81526020019081526020016000206113ae90919063ffffffff16565b6105ab5760405162461bcd60e51b81526020600482015260166024820152754e6f6e2d6578697374656e74207369676e61746f727960501b604482015260640161027b565b60006105eb8783815181106105c2576105c2611e0e565b6020026020010151600360008b81526020019081526020016000206113ca90919063ffffffff16565b9050600086838151811061060157610601611e0e565b602002602001015190506106308161ffff1661062a8461ffff16876113df90919063ffffffff16565b906113eb565b9350887fedf216018d1ddd28d5d0c5ef6cd029b93a828b15989f7cb7bac5f1335fc4658289858151811061066657610666611e0e565b6020026020010151848460405161069f939291906001600160a01b0393909316835261ffff918216602084015216604082015260600190565b60405180910390a2505080806106b490611e9c565b91505061051f565b5080600087815481106106d1576106d1611e0e565b906000526020600020906003020160020181905550505050505050565b6000828152600360205260409020829061070890336113ae565b6107485760405162461bcd60e51b8152602060048201526011602482015270496e76616c6964207369676e61746f727960781b604482015260640161027b565b6000805484919081908390811061076157610761611e0e565b6000918252602090912060039091020160010154600160b01b900460f81b6001600160f81b031916146107a65760405162461bcd60e51b815260040161027b90611e4f565b826107e75760405162461bcd60e51b8152602060048201526011602482015270496e76616c6964206274635075626b657960781b604482015260640161027b565b600084815260026020526040902061080d906001600160601b03193360601b16856113f7565b50604080513381526020810185905285917f67fd58733483015fe5529bd439261f9b074e0783528b212f7dc81ae49d4c448d910160405180910390a250505050565b60008181526004602052604090208190610869903361141c565b6108b55760405162461bcd60e51b815260206004820152601a60248201527f496e76616c696420617574686f72697a65642061646472657373000000000000604482015260640161027b565b5050565b606080606060006108db600360008781526020019081526020016000206113a3565b905060008167ffffffffffffffff8111156108f8576108f8611782565b604051908082528060200260200182016040528015610921578160200160208202803683370190505b50905060008267ffffffffffffffff81111561093f5761093f611782565b604051908082528060200260200182016040528015610968578160200160208202803683370190505b50905060008367ffffffffffffffff81111561098657610986611782565b6040519080825280602002602001820160405280156109af578160200160208202803683370190505b50905060005b84811015610aad57600089815260036020526040812081906109d7908461143e565b91509150818684815181106109ee576109ee611e0e565b60200260200101906001600160a01b031690816001600160a01b03168152505080858481518110610a2157610a21611e0e565b61ffff90921660209283029190910182015260008c81526002909152604090206001600160601b0319606084901b1690610a5b908261145a565b15610a975760008c8152600260205260409020610a789082611466565b858581518110610a8a57610a8a611e0e565b6020026020010181815250505b5050508080610aa590611e9c565b9150506109b5565b50919790965090945092505050565b60008181548110610acc57600080fd5b9060005260206000209060030201600091509050806000018054610aef90611eb7565b80601f0160208091040260200160405190810160405280929190818152602001828054610b1b90611eb7565b8015610b685780601f10610b3d57610100808354040283529160200191610b68565b820191906000526020600020905b815481529060010190602001808311610b4b57829003601f168201915b505050600184015460029094015492936001600160a01b0381169361ffff600160a01b8304169350600160b01b90910460f81b915085565b8160008181548110610bb457610bb4611e0e565b60009182526020909120600390910201600101546001600160a01b03163314610bef5760405162461bcd60e51b815260040161027b90611e24565b60005b8251811015610c4c57610c39838281518110610c1057610c10611e0e565b6020026020010151600460008781526020019081526020016000206114d690919063ffffffff16565b5080610c4481611e9c565b915050610bf2565b50505050565b6000818152600460205260409020606090610c6c906114eb565b92915050565b6001600160a01b03811660009081526005602052604081206060918291610c98906114eb565b90506000815167ffffffffffffffff811115610cb657610cb6611782565b604051908082528060200260200182016040528015610cdf578160200160208202803683370190505b5090506001600160601b0319606086901b1660005b8351811015610d8f576000848281518110610d1157610d11611e0e565b60200260200101519050610d40836002600084815260200190815260200160002061145a90919063ffffffff16565b610d4b576000610d51565b600160f81b5b848381518110610d6357610d63611e0e565b6001600160f81b0319909216602092830291909101909101525080610d8781611e9c565b915050610cf4565b50919590945092505050565b8251845114610dec5760405162461bcd60e51b815260206004820152601f60248201527f4d69736d61746368207369676e61746f7269657320616e642073686172657300604482015260640161027b565b6127108560ff161115610e3a5760405162461bcd60e51b81526020600482015260166024820152755468726573686f6c64206f7574206f662072616e676560501b604482015260640161027b565b600381511115610e8c5760405162461bcd60e51b815260206004820152601f60248201527f4f6e6c7920737570706f72747320757020746f20332074696d656c6f636b7300604482015260640161027b565b600080546040805160a0810182526060808252602082018590529181018490529081018390526080810183905290915b8651811015610f4d57610f0283888381518110610edb57610edb611e0e565b6020026020010151888481518110610ef557610ef5611e0e565b60200260200101516114f8565b610f36868281518110610f1757610f17611e0e565b602002602001015161ffff1683608001516113eb90919063ffffffff16565b608083015280610f4581611e9c565b915050610ebc565b506001835110611025578660ff1683600081518110610f6e57610f6e611e0e565b60200260200101516020015161ffff1610610fbf5760405162461bcd60e51b8152602060048201526011602482015270125b9d985b1a59081d1a1c995cda1bdb19607a1b604482015260640161027b565b4283600081518110610fd357610fd3611e0e565b60200260200101516000015163ffffffff16116110255760405162461bcd60e51b815260206004820152601060248201526f496e76616c69642074696d656c6f636b60801b604482015260640161027b565b6001835111156111745760015b83518110156111725783818151811061104d5761104d611e0e565b60200260200101516020015161ffff168460018361106b9190611ef2565b8151811061107b5761107b611e0e565b60200260200101516020015161ffff16116110cc5760405162461bcd60e51b8152602060048201526011602482015270125b9d985b1a59081d1a1c995cda1bdb19607a1b604482015260640161027b565b8381815181106110de576110de611e0e565b60200260200101516000015163ffffffff16846001836110fe9190611ef2565b8151811061110e5761110e611e0e565b60200260200101516000015163ffffffff16106111605760405162461bcd60e51b815260206004820152601060248201526f496e76616c69642074696d656c6f636b60801b604482015260640161027b565b8061116a81611e9c565b915050611032565b505b60005b83518110156111f657600184828151811061119457611194611e0e565b6020908102919091018101518254600181018455600093845292829020815193018054919092015161ffff166401000000000265ffffffffffff1990911663ffffffff90931692909217919091179055806111ee81611e9c565b915050611177565b5060005b84518110156112545761124185828151811061121857611218611e0e565b6020026020010151600460008681526020019081526020016000206114d690919063ffffffff16565b508061124c81611e9c565b9150506111fa565b508781523360208083019190915260ff88166040830152600060608301819052805460018101825590805282518051849360039093027f290decd9548b62a8d60345a988386fc84ba6bc95484008f6362f93160ef3e56301926112bb9284929101906116d0565b506020820151600182018054604080860151606087015160f81c600160b01b0260ff60b01b1961ffff909216600160a01b026001600160b01b03199094166001600160a01b039096169590951792909217919091169290921790556080909201516002909101555182907f6a442fe74510e060887936710ee698690f4ec7e9085d9a0a890c3bfe285e07b490611352908490611f09565b60405180910390a25050505050505050565b6001818154811061137457600080fd5b60009182526020909120015463ffffffff81169150640100000000900461ffff1682565b6000610c6c82611585565b6000610c6c82611398565b60006113c3836001600160a01b03841661145a565b9392505050565b60006113c3836001600160a01b038416611466565b60006113c38284611ef2565b60006113c38284611f6b565b60008281526002840160205260408120829055611414848461158f565b949350505050565b6001600160a01b038116600090815260018301602052604081205415156113c3565b600080808061144d868661159b565b9097909650945050505050565b60006113c383836115c6565b60008181526002830160205260408120548015158061148a575061148a848461145a565b6113c35760405162461bcd60e51b815260206004820152601e60248201527f456e756d657261626c654d61703a206e6f6e6578697374656e74206b65790000604482015260640161027b565b60006113c3836001600160a01b0384166115de565b606060006113c38361162d565b6000838152600360205260409020611515908361ffff8416611689565b506001600160a01b0382166000908152600560205260409020611538908461158f565b50604080516001600160a01b038416815261ffff8316602082015284917fd56dfe489b9c00fdf1898c1d84b4cbb744d9f288298856904997e25873866eec910160405180910390a2505050565b6000610c6c825490565b60006113c383836115de565b600080806115a9858561169f565b600081815260029690960160205260409095205494959350505050565b600081815260018301602052604081205415156113c3565b600081815260018301602052604081205461162557508154600181810184556000848152602080822090930184905584548482528286019093526040902091909155610c6c565b506000610c6c565b60608160000180548060200260200160405190810160405280929190818152602001828054801561167d57602002820191906000526020600020905b815481526020019060010190808311611669575b50505050509050919050565b6000611414846001600160a01b038516846113f7565b60006113c3838360008260000182815481106116bd576116bd611e0e565b9060005260206000200154905092915050565b8280546116dc90611eb7565b90600052602060002090601f0160209004810192826116fe5760008555611744565b82601f1061171757805160ff1916838001178555611744565b82800160010185558215611744579182015b82811115611744578251825591602001919060010190611729565b50611750929150611754565b5090565b5b808211156117505760008155600101611755565b60006020828403121561177b57600080fd5b5035919050565b634e487b7160e01b600052604160045260246000fd5b6040805190810167ffffffffffffffff811182821017156117bb576117bb611782565b60405290565b604051601f8201601f1916810167ffffffffffffffff811182821017156117ea576117ea611782565b604052919050565b600067ffffffffffffffff82111561180c5761180c611782565b5060051b60200190565b80356001600160a01b038116811461182d57600080fd5b919050565b600082601f83011261184357600080fd5b81356020611858611853836117f2565b6117c1565b82815260059290921b8401810191818101908684111561187757600080fd5b8286015b848110156118995761188c81611816565b835291830191830161187b565b509695505050505050565b803561ffff8116811461182d57600080fd5b600082601f8301126118c757600080fd5b813560206118d7611853836117f2565b82815260059290921b840181019181810190868411156118f657600080fd5b8286015b848110156118995761190b816118a4565b83529183019183016118fa565b60008060006060848603121561192d57600080fd5b83359250602084013567ffffffffffffffff8082111561194c57600080fd5b61195887838801611832565b9350604086013591508082111561196e57600080fd5b5061197b868287016118b6565b9150509250925092565b6000806040838503121561199857600080fd5b50508035926020909101359150565b600081518084526020808501945080840160005b838110156119e05781516001600160a01b0316875295820195908201906001016119bb565b509495945050505050565b6060815260006119fe60608301866119a7565b82810360208481019190915285518083528682019282019060005b81811015611a3957845161ffff1683529383019391830191600101611a19565b50508481036040860152855180825290820192508186019060005b81811015611a7057825185529383019391830191600101611a54565b509298975050505050505050565b6000815180845260005b81811015611aa457602081850181015186830182015201611a88565b81811115611ab6576000602083870101525b50601f01601f19169290920160200192915050565b60a081526000611ade60a0830188611a7e565b6001600160a01b039690961660208301525061ffff9390931660408401526001600160f81b0319919091166060830152608090910152919050565b60008060408385031215611b2c57600080fd5b82359150602083013567ffffffffffffffff811115611b4a57600080fd5b611b5685828601611832565b9150509250929050565b6020815260006113c360208301846119a7565b600060208284031215611b8557600080fd5b6113c382611816565b604080825283519082018190526000906020906060840190828701845b82811015611bc757815184529284019290840190600101611bab565b5050508381038285015284518082528583019183019060005b81811015611c065783516001600160f81b03191683529284019291840191600101611be0565b5090979650505050505050565b600082601f830112611c2457600080fd5b813567ffffffffffffffff811115611c3e57611c3e611782565b611c51601f8201601f19166020016117c1565b818152846020838601011115611c6657600080fd5b816020850160208301376000918101602001919091529392505050565b803560ff8116811461182d57600080fd5b600082601f830112611ca557600080fd5b81356020611cb5611853836117f2565b82815260069290921b84018101918181019086841115611cd457600080fd5b8286015b848110156118995760408189031215611cf15760008081fd5b611cf9611798565b813563ffffffff81168114611d0e5760008081fd5b8152611d1b8286016118a4565b81860152835291830191604001611cd8565b60008060008060008060c08789031215611d4657600080fd5b863567ffffffffffffffff80821115611d5e57600080fd5b611d6a8a838b01611c13565b9750611d7860208a01611c83565b96506040890135915080821115611d8e57600080fd5b611d9a8a838b01611832565b95506060890135915080821115611db057600080fd5b611dbc8a838b016118b6565b94506080890135915080821115611dd257600080fd5b611dde8a838b01611832565b935060a0890135915080821115611df457600080fd5b50611e0189828a01611c94565b9150509295509295509295565b634e487b7160e01b600052603260045260246000fd5b60208082526011908201527024b73b30b634b21034b734ba34b0ba37b960791b604082015260600190565b6020808252601c908201527f4f6e6c7920617661696c61626c6520696e204452414654206d6f646500000000604082015260600190565b634e487b7160e01b600052601160045260246000fd5b6000600019821415611eb057611eb0611e86565b5060010190565b600181811c90821680611ecb57607f821691505b60208210811415611eec57634e487b7160e01b600052602260045260246000fd5b50919050565b600082821015611f0457611f04611e86565b500390565b602081526000825160a06020840152611f2560c0840182611a7e565b905060018060a01b03602085015116604084015261ffff604085015116606084015260ff60f81b6060850151166080840152608084015160a08401528091505092915050565b60008219821115611f7e57611f7e611e86565b50019056fea26469706673582212202675e6ae75612658250e983e037f06852ed74c73f7f84a1df2cf63933438ceab64736f6c63430008090033",
  "devdoc": {
    "kind": "dev",
    "methods": {},
    "version": 1
  },
  "userdoc": {
    "kind": "user",
    "methods": {},
    "version": 1
  },
  "storageLayout": {
    "storage": [
      {
        "astId": 2091,
        "contract": "contracts/BtcVault.sol:BtcVault",
        "label": "vaults",
        "offset": 0,
        "slot": "0",
        "type": "t_array(t_struct(Vault)2082_storage)dyn_storage"
      },
      {
        "astId": 2095,
        "contract": "contracts/BtcVault.sol:BtcVault",
        "label": "timelockThresholds",
        "offset": 0,
        "slot": "1",
        "type": "t_array(t_struct(TimelockThreshold)2087_storage)dyn_storage"
      },
      {
        "astId": 2100,
        "contract": "contracts/BtcVault.sol:BtcVault",
        "label": "signatoryPubkeys",
        "offset": 0,
        "slot": "2",
        "type": "t_mapping(t_uint256,t_struct(Bytes32ToBytes32Map)327_storage)"
      },
      {
        "astId": 2105,
        "contract": "contracts/BtcVault.sol:BtcVault",
        "label": "signatoryShares",
        "offset": 0,
        "slot": "3",
        "type": "t_mapping(t_uint256,t_struct(AddressToUintMap)1001_storage)"
      },
      {
        "astId": 2110,
        "contract": "contracts/BtcVault.sol:BtcVault",
        "label": "authorizedAddresses",
        "offset": 0,
        "slot": "4",
        "type": "t_mapping(t_uint256,t_struct(AddressSet)1745_storage)"
      },
      {
        "astId": 2115,
        "contract": "contracts/BtcVault.sol:BtcVault",
        "label": "signatoryVaults",
        "offset": 0,
        "slot": "5",
        "type": "t_mapping(t_address,t_struct(UintSet)1902_storage)"
      }
    ],
    "types": {
      "t_address": {
        "encoding": "inplace",
        "label": "address",
        "numberOfBytes": "20"
      },
      "t_array(t_bytes32)dyn_storage": {
        "base": "t_bytes32",
        "encoding": "dynamic_array",
        "label": "bytes32[]",
        "numberOfBytes": "32"
      },
      "t_array(t_struct(TimelockThreshold)2087_storage)dyn_storage": {
        "base": "t_struct(TimelockThreshold)2087_storage",
        "encoding": "dynamic_array",
        "label": "struct BtcVault.TimelockThreshold[]",
        "numberOfBytes": "32"
      },
      "t_array(t_struct(Vault)2082_storage)dyn_storage": {
        "base": "t_struct(Vault)2082_storage",
        "encoding": "dynamic_array",
        "label": "struct BtcVault.Vault[]",
        "numberOfBytes": "32"
      },
      "t_bytes1": {
        "encoding": "inplace",
        "label": "bytes1",
        "numberOfBytes": "1"
      },
      "t_bytes32": {
        "encoding": "inplace",
        "label": "bytes32",
        "numberOfBytes": "32"
      },
      "t_mapping(t_address,t_struct(UintSet)1902_storage)": {
        "encoding": "mapping",
        "key": "t_address",
        "label": "mapping(address => struct EnumerableSet.UintSet)",
        "numberOfBytes": "32",
        "value": "t_struct(UintSet)1902_storage"
      },
      "t_mapping(t_bytes32,t_bytes32)": {
        "encoding": "mapping",
        "key": "t_bytes32",
        "label": "mapping(bytes32 => bytes32)",
        "numberOfBytes": "32",
        "value": "t_bytes32"
      },
      "t_mapping(t_bytes32,t_uint256)": {
        "encoding": "mapping",
        "key": "t_bytes32",
        "label": "mapping(bytes32 => uint256)",
        "numberOfBytes": "32",
        "value": "t_uint256"
      },
      "t_mapping(t_uint256,t_struct(AddressSet)1745_storage)": {
        "encoding": "mapping",
        "key": "t_uint256",
        "label": "mapping(uint256 => struct EnumerableSet.AddressSet)",
        "numberOfBytes": "32",
        "value": "t_struct(AddressSet)1745_storage"
      },
      "t_mapping(t_uint256,t_struct(AddressToUintMap)1001_storage)": {
        "encoding": "mapping",
        "key": "t_uint256",
        "label": "mapping(uint256 => struct EnumerableMap.AddressToUintMap)",
        "numberOfBytes": "32",
        "value": "t_struct(AddressToUintMap)1001_storage"
      },
      "t_mapping(t_uint256,t_struct(Bytes32ToBytes32Map)327_storage)": {
        "encoding": "mapping",
        "key": "t_uint256",
        "label": "mapping(uint256 => struct EnumerableMap.Bytes32ToBytes32Map)",
        "numberOfBytes": "32",
        "value": "t_struct(Bytes32ToBytes32Map)327_storage"
      },
      "t_string_storage": {
        "encoding": "bytes",
        "label": "string",
        "numberOfBytes": "32"
      },
      "t_struct(AddressSet)1745_storage": {
        "encoding": "inplace",
        "label": "struct EnumerableSet.AddressSet",
        "members": [
          {
            "astId": 1744,
            "contract": "contracts/BtcVault.sol:BtcVault",
            "label": "_inner",
            "offset": 0,
            "slot": "0",
            "type": "t_struct(Set)1444_storage"
          }
        ],
        "numberOfBytes": "64"
      },
      "t_struct(AddressToUintMap)1001_storage": {
        "encoding": "inplace",
        "label": "struct EnumerableMap.AddressToUintMap",
        "members": [
          {
            "astId": 1000,
            "contract": "contracts/BtcVault.sol:BtcVault",
            "label": "_inner",
            "offset": 0,
            "slot": "0",
            "type": "t_struct(Bytes32ToBytes32Map)327_storage"
          }
        ],
        "numberOfBytes": "96"
      },
      "t_struct(Bytes32Set)1638_storage": {
        "encoding": "inplace",
        "label": "struct EnumerableSet.Bytes32Set",
        "members": [
          {
            "astId": 1637,
            "contract": "contracts/BtcVault.sol:BtcVault",
            "label": "_inner",
            "offset": 0,
            "slot": "0",
            "type": "t_struct(Set)1444_storage"
          }
        ],
        "numberOfBytes": "64"
      },
      "t_struct(Bytes32ToBytes32Map)327_storage": {
        "encoding": "inplace",
        "label": "struct EnumerableMap.Bytes32ToBytes32Map",
        "members": [
          {
            "astId": 322,
            "contract": "contracts/BtcVault.sol:BtcVault",
            "label": "_keys",
            "offset": 0,
            "slot": "0",
            "type": "t_struct(Bytes32Set)1638_storage"
          },
          {
            "astId": 326,
            "contract": "contracts/BtcVault.sol:BtcVault",
            "label": "_values",
            "offset": 0,
            "slot": "2",
            "type": "t_mapping(t_bytes32,t_bytes32)"
          }
        ],
        "numberOfBytes": "96"
      },
      "t_struct(Set)1444_storage": {
        "encoding": "inplace",
        "label": "struct EnumerableSet.Set",
        "members": [
          {
            "astId": 1439,
            "contract": "contracts/BtcVault.sol:BtcVault",
            "label": "_values",
            "offset": 0,
            "slot": "0",
            "type": "t_array(t_bytes32)dyn_storage"
          },
          {
            "astId": 1443,
            "contract": "contracts/BtcVault.sol:BtcVault",
            "label": "_indexes",
            "offset": 0,
            "slot": "1",
            "type": "t_mapping(t_bytes32,t_uint256)"
          }
        ],
        "numberOfBytes": "64"
      },
      "t_struct(TimelockThreshold)2087_storage": {
        "encoding": "inplace",
        "label": "struct BtcVault.TimelockThreshold",
        "members": [
          {
            "astId": 2084,
            "contract": "contracts/BtcVault.sol:BtcVault",
            "label": "timelock",
            "offset": 0,
            "slot": "0",
            "type": "t_uint32"
          },
          {
            "astId": 2086,
            "contract": "contracts/BtcVault.sol:BtcVault",
            "label": "threshold",
            "offset": 4,
            "slot": "0",
            "type": "t_uint16"
          }
        ],
        "numberOfBytes": "32"
      },
      "t_struct(UintSet)1902_storage": {
        "encoding": "inplace",
        "label": "struct EnumerableSet.UintSet",
        "members": [
          {
            "astId": 1901,
            "contract": "contracts/BtcVault.sol:BtcVault",
            "label": "_inner",
            "offset": 0,
            "slot": "0",
            "type": "t_struct(Set)1444_storage"
          }
        ],
        "numberOfBytes": "64"
      },
      "t_struct(Vault)2082_storage": {
        "encoding": "inplace",
        "label": "struct BtcVault.Vault",
        "members": [
          {
            "astId": 2073,
            "contract": "contracts/BtcVault.sol:BtcVault",
            "label": "name",
            "offset": 0,
            "slot": "0",
            "type": "t_string_storage"
          },
          {
            "astId": 2075,
            "contract": "contracts/BtcVault.sol:BtcVault",
            "label": "initiator",
            "offset": 0,
            "slot": "1",
            "type": "t_address"
          },
          {
            "astId": 2077,
            "contract": "contracts/BtcVault.sol:BtcVault",
            "label": "threshold",
            "offset": 20,
            "slot": "1",
            "type": "t_uint16"
          },
          {
            "astId": 2079,
            "contract": "contracts/BtcVault.sol:BtcVault",
            "label": "status",
            "offset": 22,
            "slot": "1",
            "type": "t_bytes1"
          },
          {
            "astId": 2081,
            "contract": "contracts/BtcVault.sol:BtcVault",
            "label": "totalShare",
            "offset": 0,
            "slot": "2",
            "type": "t_uint256"
          }
        ],
        "numberOfBytes": "96"
      },
      "t_uint16": {
        "encoding": "inplace",
        "label": "uint16",
        "numberOfBytes": "2"
      },
      "t_uint256": {
        "encoding": "inplace",
        "label": "uint256",
        "numberOfBytes": "32"
      },
      "t_uint32": {
        "encoding": "inplace",
        "label": "uint32",
        "numberOfBytes": "4"
      }
    }
  }
}